:060B2A00011000011100A2
:100AE200E4FDFCC3ED9FEC9E5015E4FBFA0BBB004A
:0F0AF200010AEB64354A70F50DBD00010C80E47C
:010B010022D1
:0D0A8600D2A4C2A4E94408F5A0D2A4C2A4E1
:100A9300E5A05480FFC2A4C2A6D2A5300013D2A4FD
:100AA300EF447FF5A0E5A0640324FF9200C2A48075
:010AB300EA58
:010AB400221F
:100B19008F107804EF08800103D8FDF510540FFFFA
:010B290022A9
:020A2600AE0719
:100A2800E5A05480FD120A93AF06120B19EF4DF59D
:100A3800A0C2A5C2A6D2A4C2A4EE540F4DF5A0C26E
:0E0A4800A5C2A6D2A4C2A47F027E00020AE2CA
:020A5600AE07E9
:100A5800E5A05480FD120B19AC07120A93EC4DF572
:100A6800A0C2A5D2A6D2A4C2A4EE540F4DF5A0C22E
:0E0A7800A5D2A6D2A4C2A47F027E00020AE28A
:060800008B228A238924EB
:10080600E4F545F546F545AB22AA23A9248545829C
:10081600758300120AB5FFE546D3940FEF75F064B1
:10082600403C842430FE74252546F8A606EF75F074
:100836000A84FE74262546F8A60674262546F8E69A
:1008460075F00A84E5F02430F6EF75F00A84E5F0D9
:100856002430FE74272546F8A6067428803A842498
:1008660030FE74252546F8A606EF75F00A84FE7458
:10087600262546F8A60674262546F8E675F00A8467
:10088600E5F02430F6EF75F00A84E5F02430FE74C6
:10089600272546F8A60674282546F87620740425EA
:1008A60046F5460545E5456408600302080D7F8068
:1008B600120A26E4F545E545C395465023E545B4B9
:1008C60010057FC0120A26E545D3940F400474250F
:1008D600800274252545F8E6FF120A56054580D69E
:0508E6007F80020A26DC
:10097700E5A05480F9C2A6C2A57F287E00120AE22C
:10098700C2A4E94403F5A0D2A4C2A47F04120AE2D8
:10099700E94403F5A0D2A4C2A47F02120AE2E94403
:1009A70003F5A0D2A4C2A4120AE2E94402120A8DF6
:1009B700E94402F5A0120A8689A0120A8689A0D204
:1009C700A4C2A4E94401120A8D89A0D2A4C2A4E951
:1009D7004406120A8D7F0F120A267F01120A267F0C
:0909E70006120A267F80020A268E
:100B02008F80D2B6C2B67F027E00120AE27580FFE3
:060B1200D2B7AF80C2B7AC
:010B180022BA
:1009F000E4F521C2B7C2B6D2A7120977E4F521AF58
:100A000021120B0274082521F8A6070521E521C350
:100A1000940840EB7B007A0079081208007FE87E9A
:060A200003120AE280D679
:030000000208EB08
:0C08EB00787FE4F6D8FD758146020932E2
:100AB500BB010CE58229F582E5833AF583E02250F6
:100AC50006E92582F8E622BBFE06E92582F8E22240
:0D0AD500E58229F582E5833AF583E493225A
:1008F7000209F0E493A3F8E493A34003F68001F21E
:1009070008DFF48029E493A3F85407240CC8C33301
:10091700C4540F4420C8834004F456800146F6DFD0
:10092700E4800B0102040810204080900B2AE47E2B
:10093700019360BCA3FF543F30E509541FFEE493C5
:10094700A360010ECF54C025E060A840B8E493A38C
:10095700FAE493A3F8E493A3C8C582C8CAC583CAB7
:10096700F0A3C8C582C8CAC583CADFE9DEE780BE6F
:010B300000C4
:00000001FF
