:100000000C9472000C9493000C9493000C94930045
:100010000C9493000C9493000C9493000C94930014
:100020000C9493000C9493000C9493000C94930004
:100030000C9493000C9493000C9493000C949300F4
:100040000C9493000C94A1030C94F9030C945104A8
:100050000C94A3040C9493000C9493000C949300C0
:100060000C9493000C94B5190C9493000C94930089
:100070000C9493000C9493000C9493000C949300B4
:100080000C9493000C9493000C9493000C949300A4
:100090000C9493000C9493000C9493000C94930094
:1000A0000C9493000C9493000C9493000C94930084
:1000B0000C9493000C9493000C9493000C94930074
:1000C0000C9493000C9493000C9493000C94930064
:1000D0000C9493000C9493000C9493000C94930054
:1000E0000C94930011241FBECFEFD1E2DEBFCDBF31
:1000F00000E00CBF13E0A0E0B2E0ECEBF7E400E0BE
:100100000BBF02C007900D92AC30B107D9F713E0D6
:10011000ACE0B3E001C01D92A834B107E1F70E9442
:10012000381A0C94DC230C940000DF93CF93CDB7E6
:10013000DEB7E4E2F0E080E68083E5E2F0E0108202
:10014000EAE2F0E081EF8083EBE2F0E01082E3E3AB
:10015000F0E083E08083E4E3F0E01082E1E0F1E0AE
:1001600080E78083E2E0F1E01082E4E0F1E08EEFEE
:100170008083E5E0F1E01082EAE0F1E087EC808343
:10018000EBE0F1E01082CF91DF910895DF93CF9300
:10019000CDB7DEB7A7E2B0E0E7E2F0E080818860AB
:1001A0008C93A8E2B0E0E8E2F0E08081877F8C9356
:1001B000CF91DF910895DF93CF930F92CDB7DEB744
:1001C0001982E6E2F0E080818983898188608983F1
:1001D000E8E2F0E0898180830F90CF91DF9108956C
:1001E000DF93CF930F92CDB7DEB71982E6E2F0E04E
:1001F000808189838981877F8983E8E2F0E0898132
:1002000080830F90CF91DF910895DF93CF93CDB787
:10021000DEB7E1E8F0E01082E5E8F0E080E7808317
:10022000E4E8F0E081E08083E9E8F0E08FE88083B3
:10023000E8E8F0E08FEF8083EBE8F0E08FE8808380
:10024000EAE8F0E08FEF8083EDE8F0E08FE880836C
:10025000ECE8F0E08FEF8083E0E8F0E01082E2E885
:10026000F0E01082E1E8F0E081E08083CF91DF915F
:100270000895DF93CF93CDB7DEB7E1ECF0E01082C5
:10028000E0ECF0E01082E2ECF0E086E08083E4EC69
:10029000F0E087E08083E5ECF0E01082E1ECF0E054
:1002A00088E98083CF91DF910895DF93CF93CDB715
:1002B000DEB7ABE2B0E0EBE2F0E0808181608C93EE
:1002C000CF91DF910895DF93CF93CDB7DEB7ABE247
:1002D000B0E0EBE2F0E080818E7F8C93CF91DF91F4
:1002E0000895DF93CF93CDB7DEB7ABE2B0E0EBE29A
:1002F000F0E080818F7D8C93CF91DF910895DF9323
:10030000CF93CDB7DEB7ABE2B0E0EBE2F0E08081B7
:1003100080628C93CF91DF910895DF93CF93CDB717
:10032000DEB7ABE0B1E0EBE0F1E080818B7F8C9356
:10033000CF91DF910895DF93CF93CDB7DEB7ABE0D8
:10034000B1E0EBE0F1E0808184608C93CF91DF91AC
:100350000895DF93CF93CDB7DEB7A4E3B0E0E4E335
:10036000F0E080818D7F8C93CF91DF910895DF93B2
:10037000CF93CDB7DEB7A4E3B0E0E4E3F0E0808153
:1003800082608C93CF91DF910895DF93CF93CDB7A7
:10039000DEB7ABE0B1E0EBE0F1E080818F7B8C93E6
:1003A000CF91DF910895DF93CF93CDB7DEB7ABE068
:1003B000B1E0EBE0F1E0808180648C93CF91DF913C
:1003C0000895DF93CF93CDB7DEB7ABE2B0E0EBE2B9
:1003D000F0E080818F7E8C93CF91DF910895DF9341
:1003E000CF93CDB7DEB7ABE2B0E0EBE2F0E08081D7
:1003F00080618C93CF91DF910895DF93CF93CDB738
:10040000DEB7ABE0B1E0EBE0F1E080818F778C9379
:10041000CF91DF910895DF93CF93CDB7DEB7ABE0F7
:10042000B1E0EBE0F1E0808180688C93CF91DF91C7
:100430000895DF93CF93CDB7DEB7A2E0B1E0E2E05D
:10044000F1E080818F7B8C93CF91DF910895DF93D2
:10045000CF93CDB7DEB7A2E0B1E0E2E0F1E080817A
:1004600080648C93CF91DF910895DF93CF93CDB7C4
:10047000DEB7A2E0B1E0E2E0F1E080818F7E8C9314
:10048000CF91DF910895DF93CF93CDB7DEB7A2E090
:10049000B1E0E2E0F1E0808180618C93CF91DF9167
:1004A0000895DF93CF93CDB7DEB7A2E0B1E0E2E0ED
:1004B000F1E080818F7D8C93CF91DF910895DF9360
:1004C000CF93CDB7DEB7A2E0B1E0E2E0F1E080810A
:1004D00080628C93CF91DF910895DF93CF93CDB756
:1004E000DEB7A4E3B0E0E4E3F0E080818E7F8C939C
:1004F000CF91DF910895DF93CF93CDB7DEB7A4E31B
:10050000B0E0E4E3F0E0808181608C93CF91DF91F3
:100510000895DF93CF93CDB7DEB7ABE2B0E0EBE267
:10052000F0E080818F778C93CF91DF910895DF93F6
:10053000CF93CDB7DEB7ABE2B0E0EBE2F0E0808185
:1005400080688C93CF91DF910895DF93CF93CDB7DF
:10055000DEB7ABE2B0E0EBE2F0E080818F7B8C9322
:10056000CF91DF910895DF93CF93CDB7DEB7ABE2A4
:10057000B0E0EBE2F0E0808180648C93CF91DF917A
:100580000895DF93CF93CDB7DEB7A5E0B1E0E5E006
:10059000F1E080818F7D8C93CF91DF910895DF937F
:1005A000CF93CDB7DEB7A5E0B1E0E5E0F1E0808123
:1005B00080628C93CF91DF910895DF93CF93CDB775
:1005C000DEB7A5E0B1E0E5E0F1E080818F7B8C93C0
:1005D000CF91DF910895DF93CF93CDB7DEB7A5E03C
:1005E000B1E0E5E0F1E0808180648C93CF91DF9110
:1005F0000895DF93CF93CDB7DEB7A5E0B1E0E5E096
:10060000F1E080818F7E8C93CF91DF910895DF930D
:10061000CF93CDB7DEB7A5E0B1E0E5E0F1E08081B2
:1006200080618C93CF91DF910895DF93CF93CDB705
:10063000DEB7A5E0B1E0E5E0F1E08081877F8C9353
:10064000CF91DF910895DF93CF93CDB7DEB7A5E0CB
:10065000B1E0E5E0F1E0808188608C93CF91DF919B
:100660000895DF93CF93CDB7DEB7A5E0B1E0E5E025
:10067000F1E080818D7F8C93CF91DF910895DF939E
:10068000CF93CDB7DEB7A5E0B1E0E5E0F1E0808142
:1006900082608C93CF91DF910895DF93CF93CDB794
:1006A000DEB7A5E0B1E0E5E0F1E080818B7F8C93DF
:1006B000CF91DF910895DF93CF93CDB7DEB7A5E05B
:1006C000B1E0E5E0F1E0808184608C93CF91DF912F
:1006D0000895DF93CF93CDB7DEB7A5E2B0E0E5E2B2
:1006E000F0E080818F7D8C93CF91DF910895DF932F
:1006F000CF93CDB7DEB7A5E2B0E0E5E2F0E08081D0
:1007000080628C93CF91DF910895DF93CF93CDB723
:10071000DEB7A5E2B0E0E5E2F0E080818F7B8C936C
:10072000CF91DF910895DF93CF93CDB7DEB7A5E2E8
:10073000B0E0E5E2F0E0808180648C93CF91DF91BE
:1007400008951F920F920FB60F9200905B000F92C8
:1007500011242F933F934F935F936F937F938F93C6
:100760009F93AF93BF93EF93FF93DF93CF93CDB757
:10077000DEB780910C03882311F40E9471018091EF
:100780000C03813011F40E94C50180910C0382306A
:1007900011F40E94190280910C03833011F40E941D
:1007A0006D0280910C03843011F40E94C10280918B
:1007B0000C03853011F40E94150380910C038630E0
:1007C00011F40E946903CF91DF91FF91EF91BF91E6
:1007D000AF919F918F917F916F915F914F913F91D9
:1007E0002F910F9000925B000F900FBE0F901F9003
:1007F00018951F920F920FB60F9200905B000F9208
:1008000011242F933F934F935F936F937F938F9315
:100810009F93AF93BF93EF93FF93DF93CF93CDB7A6
:10082000DEB780910C03882311F40E948D01809122
:100830000C03813011F40E94E10180910C0382309D
:1008400011F40E94350280910C03833011F40E9450
:10085000890280910C03843011F40E94DD028091A2
:100860000C03853011F40E94310380910C03863013
:1008700011F40E948503CF91DF91FF91EF91BF9119
:10088000AF919F918F917F916F915F914F913F9128
:100890002F910F9000925B000F900FBE0F901F9052
:1008A00018951F920F920FB60F9200905B000F9257
:1008B00011242F933F934F935F936F937F938F9365
:1008C0009F93AF93BF93EF93FF93DF93CF93CDB7F6
:1008D000DEB780910C03882311F40E94A901809156
:1008E0000C03813011F40E94FD0180910C038230D1
:1008F00011F40E94510280910C03833011F40E9484
:10090000A50280910C03843011F40E94F9028091B9
:100910000C03853011F40E944D03CF91DF91FF91BC
:10092000EF91BF91AF919F918F917F916F915F9167
:100930004F913F912F910F9000925B000F900FBE4F
:100940000F901F9018951F920F920FB60F92009064
:100950005B000F9211242F933F934F935F936F93FC
:100960007F938F939F93AF93BF93EF93FF93DF9307
:10097000CF93CDB7DEB7E5E8F0E080E78083E4E829
:10098000F0E081E0808380910C038F5F80930C0303
:1009900080910C03883010F010920C0380910C03AE
:1009A000882321F50E947F010E949B010E94B701CC
:1009B000E9E8F0E0809121038083E8E8F0E08091AD
:1009C00037038083EBE8F0E080913F038083EAE81F
:1009D000F0E0809132038083EDE8F0E080913A030B
:1009E0008083ECE8F0E080914303808380910C03E6
:1009F000813021F50E94D3010E94EF010E940B0279
:100A0000E9E8F0E080913E038083E8E8F0E080913F
:100A10001D038083EBE8F0E080911F038083EAE808
:100A2000F0E0809133038083EDE8F0E080913803BB
:100A30008083ECE8F0E080914503808380910C0393
:100A4000823021F50E9427020E9443020E945F0229
:100A5000E9E8F0E080913D038083E8E8F0E08091F0
:100A60002E038083EBE8F0E0809120038083EAE8A6
:100A7000F0E080911C038083EDE8F0E08091220398
:100A80008083ECE8F0E080914703808380910C0341
:100A9000833021F50E947B020E9497020E94B302DC
:100AA000E9E8F0E0809140038083E8E8F0E080919D
:100AB00030038083EBE8F0E080913B038083EAE839
:100AC000F0E0809146038083EDE8F0E080914403FC
:100AD0008083ECE8F0E080913903808380910C03FF
:100AE000843021F50E94CF020E94EB020E9407038E
:100AF000E9E8F0E080911E038083E8E8F0E080916F
:100B000042038083EBE8F0E0809124038083EAE8ED
:100B1000F0E080912F038083EDE8F0E080913C03CA
:100B20008083ECE8F0E080913603808380910C03B1
:100B3000853021F50E9423030E943F030E945B033E
:100B4000E9E8F0E0809134038083E8E8F0E0809108
:100B500035038083EBE8F0E0809123038083EAE8AB
:100B6000F0E0809125038083EDE8F0E0809131038F
:100B70008083ECE8F0E080914103808380910C0356
:100B80008630C1F40E9477030E949303E9E8F0E005
:100B9000809111038083E8E8F0E080910102808376
:100BA000EBE8F0E0809110038083EAE8F0E08091C8
:100BB0000002808380911303909114030196909317
:100BC00014038093130380911303909114038135D0
:100BD000910538F0109214031092130381E0809372
:100BE0001503CF91DF91FF91EF91BF91AF919F914D
:100BF0008F917F916F915F914F913F912F910F90C6
:100C000000925B000F900FBE0F901F901895DF931E
:100C1000CF9300D00F92CDB7DEB71C821B821A8211
:100C2000198280910F03853B18F084EB80930F03AA
:100C300080910F03282F30E08BE890E0AC01249FD7
:100C4000C001259F900D349F900D1124825590472F
:100C50009C838B838B8180930E038B819C81892F56
:100C600099279A838983898180930D030F900F9030
:100C70000F900F90CF91DF910895DF93CF930F9254
:100C8000CDB7DEB78983898180930F030E94070661
:100C900080910D038093210380910E03809337038D
:100CA0000F90CF91DF910895DF93CF930F92CDB73F
:100CB000DEB78983898180930F030E9407068091A4
:100CC0000D0380933F0380910E03809332030F90B6
:100CD000CF91DF910895DF93CF930F92CDB7DEB719
:100CE0008983898180930F030E94070680910D03F9
:100CF00080933A0380910E03809343030F90CF912A
:100D0000DF910895DF93CF930F92CDB7DEB789833C
:100D1000898180930F030E94070680910D038093C1
:100D20003E0380910E0380931D030F90CF91DF91BE
:100D30000895DF93CF930F92CDB7DEB78983898172
:100D400080930F030E94070680910D0380931F0379
:100D500080910E03809333030F90CF91DF9108951C
:100D6000DF93CF930F92CDB7DEB7898389818093CC
:100D70000F030E94070680910D0380933803809132
:100D80000E03809345030F90CF91DF910895DF9379
:100D9000CF930F92CDB7DEB78983898180930F03FC
:100DA0000E94070680910D0380933D0380910E03FE
:100DB00080932E030F90CF91DF910895DF93CF930F
:100DC0000F92CDB7DEB78983898180930F030E948C
:100DD000070680910D038093200380910E0380937A
:100DE0001C030F90CF91DF910895DF93CF930F9263
:100DF000CDB7DEB78983898180930F030E940706F0
:100E000080910D038093220380910E03809347030A
:100E10000F90CF91DF910895DF93CF930F92CDB7CD
:100E2000DEB78983898180930F030E940706809132
:100E30000D038093400380910E03809330030F9045
:100E4000CF91DF910895DF93CF930F92CDB7DEB7A7
:100E50008983898180930F030E94070680910D0387
:100E600080933B0380910E03809346030F90CF91B4
:100E7000DF910895DF93CF930F92CDB7DEB78983CB
:100E8000898180930F030E94070680910D03809350
:100E9000440380910E03809339030F90CF91DF912B
:100EA0000895DF93CF930F92CDB7DEB78983898101
:100EB00080930F030E94070680910D0380931E0309
:100EC00080910E03809342030F90CF91DF9108959C
:100ED000DF93CF930F92CDB7DEB78983898180935B
:100EE0000F030E94070680910D03809324038091D5
:100EF0000E0380932F030F90CF91DF910895DF931E
:100F0000CF930F92CDB7DEB78983898180930F038A
:100F10000E94070680910D0380933C0380910E038D
:100F2000809336030F90CF91DF910895DF93CF9395
:100F30000F92CDB7DEB78983898180930F030E941A
:100F4000070680910D038093340380910E038093F4
:100F500035030F90CF91DF910895DF93CF930F92D8
:100F6000CDB7DEB78983898180930F030E9407067E
:100F700080910D038093230380910E0380932503BA
:100F80000F90CF91DF910895DF93CF930F92CDB75C
:100F9000DEB78983898180930F030E9407068091C1
:100FA0000D038093310380910E03809341030F90D2
:100FB000CF91DF910895DF93CF930F92CDB7DEB736
:100FC00089839DED8981292F281B822F80930F0310
:100FD00080910F038E3D18F08DED80930F0380916B
:100FE0000F03882F90E0AA2797FDA095BA2FBC0188
:100FF000CD010E94FE20DC01CB01BC01CD012AE91C
:1010000039E949E95FE30E94C21FDC01CB01BC0161
:10101000CD010E94F21CDC01CB0180930F030E94E2
:10102000070680910D038093110380910E03809336
:1010300001020F90CF91DF910895DF93CF930F922C
:10104000CDB7DEB789838981882F90E0AA2797FDE5
:10105000A095BA2FBC01CD010E94FE20DC01CB017E
:10106000BC01CD012AE939E949E95FE30E94C21FC9
:10107000DC01CB01BC01CD010E94F21CDC01CB01E3
:1010800080930F030E94070680910D038093100345
:1010900080910E03809300020F90CF91DF9108950D
:1010A000DF93CF93CDB7DEB78AE50E943D068AE590
:1010B0000E9454068AE50E946B068AE50E94820619
:1010C0008AE50E9499068AE50E94B0068AE50E9498
:1010D000C7068AE50E94DE068AE50E94F5068AE5D3
:1010E0000E940C078AE50E9423078AE50E943A07BE
:1010F0008AE50E9451078AE50E9468078AE50E94F6
:101100007F078AE50E9496078AE50E94AD078AE577
:101110000E94C407CF91DF910895DF93CF93CDB79D
:10112000DEB787E80E943D068DE70E9454068AE5F7
:101130000E946B068AE50E9482068DE70E9499064E
:101140008AE50E94B0068DE20E94C7068DE70E94E4
:10115000DE068AE50E94F5068DE20E940C0787E311
:101160000E9423078AE50E943A078AE50E945107F8
:1011700087E30E9468078AE50E947F0787E80E944C
:10118000960787E30E94AD078AE50E94C407CF91C6
:10119000DF910895DF93CF93CDB7DEB78AE50E9444
:1011A0003D068DE70E9454068AE50E946B068AE59B
:1011B0000E9482068DE70E9499068AE50E94B00689
:1011C0008AE50E94C7068DE70E94DE068AE50E9436
:1011D000F5068AE50E940C0787E30E9423078AE54B
:1011E0000E943A078AE50E94510787E30E94680738
:1011F0008AE50E947F078AE50E94960787E30E949E
:10120000AD078AE50E94C407CF91DF9108950F933F
:101210001F93DF93CF93CDB7DEB7CE57D0400FB635
:10122000F894DEBF0FBECDBF8AE50E9499068AE51D
:101230000E94B0068AE50E9423078AE50E943A07C9
:10124000FE01E558FF4F80E090E0AAE7B3E4808319
:101250009183A283B3838E0109581F4FFE01E55885
:10126000FF4F608171818281938126E636E646E6F2
:1012700055E40E94C81EDC01CB01F80180839183F4
:10128000A283B383FE01E958FF4F6081718182819F
:10129000938120E030E040E85FE30E94CE20882385
:1012A00044F4FE01EB58FF4F81E090E0918380838E
:1012B00064C0FE01E958FF4F608171818281938192
:1012C00020E03FEF4FE757E40E946E2018160CF025
:1012D00043C0FE01E558FF4F608171818281938197
:1012E00020E030E040E251E40E94C81EDC01CB0166
:1012F0008E010B581F4FBC01CD010E94F21CDC0176
:10130000CB01F801918380831FC0FE01ED58FF4F90
:1013100080E791E091838083FE01ED58FF4F80814B
:1013200091810197F1F7FE01ED58FF4F9183808382
:10133000DE01AB58BF4FFE01EB58FF4F808191811A
:10134000019711969C938E93FE01EB58FF4F80817D
:1013500091810097D1F627C08E010B581F4FFE01D7
:10136000E958FF4F60817181828193810E94F21C54
:10137000DC01CB01F80191838083DE01AF58BF4FC0
:10138000FE01EB58FF4F808191818D939C93FE016C
:10139000EF58FF4F808191810197F1F7FE01EF58DF
:1013A000FF4F9183808386E40E94820681E40E943D
:1013B0000C07FE01E359FF4F80E090E0AAE7B3E499
:1013C00080839183A283B3838E0107591F4FFE014F
:1013D000E359FF4F608171818281938126E636E671
:1013E00046E655E40E94C81EDC01CB01F80180836B
:1013F0009183A283B383FE01E759FF4F608171811E
:101400008281938120E030E040E85FE30E94CE20BB
:10141000882344F4FE01E959FF4F81E090E0918375
:10142000808364C0FE01E759FF4F60817181828132
:10143000938120E03FEF4FE757E40E946E2018169B
:101440000CF043C0FE01E359FF4F6081718182813E
:10145000938120E030E040E251E40E94C81EDC01AC
:10146000CB018E0109591F4FBC01CD010E94F21C16
:10147000DC01CB01F801918380831FC0FE01EB5991
:10148000FF4F80E791E091838083FE01EB59FF4F8E
:10149000808191810197F1F7FE01EB59FF4F918314
:1014A0008083DE01A959BF4FFE01E959FF4F8081BA
:1014B0009181019711969C938E93FE01E959FF4FFC
:1014C000808191810097D1F627C08E0109591F4F65
:1014D000FE01E759FF4F60817181828193810E94F3
:1014E000F21CDC01CB01F80191838083DE01AD5950
:1014F000BF4FFE01E959FF4F808191818D939C93ED
:10150000FE01ED59FF4F808191810197F1F7FE01B6
:10151000ED59FF4F918380838DE70E94990687E301
:101520000E942307FE01E15AFF4F80E090E0AAE706
:10153000B3E480839183A283B3838E01055A1F4F46
:10154000FE01E15AFF4F608171818281938126E61D
:1015500036E646E655E40E94C81EDC01CB01F801E0
:1015600080839183A283B383FE01E55AFF4F60819C
:1015700071818281938120E030E040E85FE30E9446
:10158000CE20882344F4FE01E75AFF4F81E090E02B
:101590009183808364C0FE01E55AFF4F60817181B1
:1015A0008281938120E03FEF4FE757E40E946E2055
:1015B00018160CF043C0FE01E15AFF4F60817181A3
:1015C0008281938120E030E040E251E40E94C81E15
:1015D000DC01CB018E01075A1F4FBC01CD010E94D7
:1015E000F21CDC01CB01F801918380831FC0FE0156
:1015F000E95AFF4F80E791E091838083FE01E95A29
:10160000FF4F808191810197F1F7FE01E95AFF4F69
:1016100091838083DE01A75ABF4FFE01E75AFF4F37
:1016200080819181019711969C938E93FE01E75AD8
:10163000FF4F808191810097D1F627C08E01075A14
:101640001F4FFE01E55AFF4F6081718182819381B6
:101650000E94F21CDC01CB01F80191838083DE0142
:10166000AB5ABF4FFE01E75AFF4F808191818D93A6
:101670009C93FE01EB5AFF4F808191810197F1F716
:10168000FE01EB5AFF4F918380838AE50E94540646
:101690008AE50E946B068AE50E94AD078AE50E94F2
:1016A000C407FE01EF5AFF4F80E090E0AAE7B3E4E1
:1016B00080839183A283B3838E01035B1F4FFE015E
:1016C000EF5AFF4F608171818281938126E636E671
:1016D00046E655E40E94C81EDC01CB01F801808378
:1016E0009183A283B383FE01E35BFF4F608171812D
:1016F0008281938120E030E040E85FE30E94CE20C9
:10170000882344F4FE01E55BFF4F81E090E0918384
:10171000808364C0FE01E35BFF4F60817181828141
:10172000938120E03FEF4FE757E40E946E201816A8
:101730000CF043C0FE01EF5AFF4F6081718182813E
:10174000938120E030E040E251E40E94C81EDC01B9
:10175000CB018E01055B1F4FBC01CD010E94F21C25
:10176000DC01CB01F801918380831FC0FE01E75BA0
:10177000FF4F80E791E091838083FE01E75BFF4F9D
:10178000808191810197F1F7FE01E75BFF4F918323
:101790008083DE01A55BBF4FFE01E55BFF4F8081CB
:1017A0009181019711969C938E93FE01E55BFF4F0B
:1017B000808191810097D1F627C08E01055B1F4F74
:1017C000FE01E35BFF4F60817181828193810E9402
:1017D000F21CDC01CB01F80191838083DE01A95B5F
:1017E000BF4FFE01E55BFF4F808191818D939C93FC
:1017F000FE01E95BFF4F808191810197F1F7FE01C6
:10180000E95BFF4F9183808383E70E943D068BE96C
:101810000E949607FE01ED5BFF4F80E090E0AAE793
:10182000B3E480839183A283B3838E01015C1F4F55
:10183000FE01ED5BFF4F608171818281938126E61D
:1018400036E646E655E40E94C81EDC01CB01F801ED
:1018500080839183A283B383FE01FF9660817181AF
:101860008281938120E030E040E85FE30E94CE2057
:1018700088232CF481E090E09EAF8DAF46C0FE013E
:10188000FF96608171818281938120E03FEF4FE775
:1018900057E40E946E20181664F5FE01ED5BFF4FC1
:1018A000608171818281938120E030E040E251E4E7
:1018B0000E94C81EDC01CB01BC01CD010E94F21CBC
:1018C000DC01CB019EAF8DAF0FC080E791E09CAFF4
:1018D0008BAF8BAD9CAD0197F1F79CAF8BAF8DAD0E
:1018E0009EAD01979EAF8DAF8DAD9EAD009769F710
:1018F00016C0FE01FF9660817181828193810E94F2
:10190000F21CDC01CB019EAF8DAF8DAD9EAD9AAFC9
:1019100089AF89AD9AAD0197F1F79AAF89AF8DE79D
:101920000E94540687E30E94AD0780E090E0AAE79A
:10193000B3E48DAB9EABAFABB8AF6DA97EA98FA959
:1019400098AD26E636E646E655E40E94C81EDC0160
:10195000CB0189AB9AABABABBCAB69A97AA98BA91C
:101960009CA920E030E040E85FE30E94CE2088237D
:101970002CF481E090E098AB8FA73FC069A97AA9C9
:101980008BA99CA920E03FEF4FE757E40E946E200F
:1019900018164CF56DA97EA98FA998AD20E030E00E
:1019A00040E251E40E94C81EDC01CB01BC01CD0124
:1019B0000E94F21CDC01CB0198AB8FA70FC080E71F
:1019C00091E09EA78DA78DA59EA50197F1F79EA7F3
:1019D0008DA78FA598A9019798AB8FA78FA598A9D8
:1019E000009769F714C069A97AA98BA99CA90E94DC
:1019F000F21CDC01CB0198AB8FA78FA598A99CA7FF
:101A00008BA78BA59CA50197F1F79CA78BA78AE5CF
:101A10000E94DE068AE50E94F5068AE50E946807B4
:101A20008AE50E947F0780E090E0AAE7B3E48FA3F5
:101A300098A7A9A7BAA76FA178A589A59AA526E610
:101A400036E646E655E40E94C81EDC01CB018BA3B6
:101A50009CA3ADA3BEA36BA17CA18DA19EA120E000
:101A600030E040E85FE30E94CE2088232CF481E040
:101A700090E09AA389A33FC06BA17CA18DA19EA1F8
:101A800020E03FEF4FE757E40E946E2018164CF518
:101A90006FA178A589A59AA520E030E040E251E445
:101AA0000E94C81EDC01CB01BC01CD010E94F21CCA
:101AB000DC01CB019AA389A30FC080E791E098A332
:101AC0008F8F8F8D98A10197F1F798A38F8F89A1A0
:101AD0009AA101979AA389A389A19AA1009769F76E
:101AE00014C06BA17CA18DA19EA10E94F21CDC01FF
:101AF000CB019AA389A389A19AA19E8F8D8F8D8DE9
:101B00009E8D0197F1F79E8F8D8F89E10E94C70608
:101B10008EE60E94510780E090E0AAE7B3E4898F47
:101B20009A8FAB8FBC8F698D7A8D8B8D9C8D26E6BD
:101B300036E646E655E40E94C81EDC01CB018D8BDB
:101B40009E8BAF8BB88F6D897E898F89988D20E0B1
:101B500030E040E85FE30E94CE2088232CF481E04F
:101B600090E09C8B8B8B3FC06D897E898F89988D8F
:101B700020E03FEF4FE757E40E946E2018164CF527
:101B8000698D7A8D8B8D9C8D20E030E040E251E4B0
:101B90000E94C81EDC01CB01BC01CD010E94F21CD9
:101BA000DC01CB019C8B8B8B0FC080E791E09A8B83
:101BB000898B89899A890197F1F79A8B898B8B890F
:101BC0009C8901979C8B8B8B8B899C89009769F7EB
:101BD00014C06D897E898F89988D0E94F21CDC016A
:101BE000CB019C8B8B8B8B899C89988B8F878F8566
:101BF00098890197F1F7988B8F878DE70E94DE0611
:101C000087E30E94680780E090E0AAE7B3E48B874F
:101C10009C87AD87BE876B857C858D859E8526E6F6
:101C200036E646E655E40E94C81EDC01CB018F83F0
:101C30009887A987BA876F81788589859A8520E0FA
:101C400030E040E85FE30E94CE2088232CF481E05E
:101C500090E09E838D833FC06F81788589859A85CA
:101C600020E03FEF4FE757E40E946E2018164CF536
:101C70006B857C858D859E8520E030E040E251E4D7
:101C80000E94C81EDC01CB01BC01CD010E94F21CE8
:101C9000DC01CB019E838D830FC080E791E09C83A4
:101CA0008B838B819C810197F1F79C838B838D8142
:101CB0009E8101979E838D838D819E81009769F718
:101CC00014C06F81788589859A850E94F21CDC0199
:101CD000CB019E838D838D819E819A8389838981A7
:101CE0009A810197F1F79A838983C258DF4F0FB623
:101CF000F894DEBF0FBECDBFCF91DF911F910F9142
:101D000008950F931F93DF93CF93CDB7DEB7CE57D0
:101D1000D0400FB6F894DEBF0FBECDBF8AE50E945B
:101D2000DE068AE50E94F5068AE50E9468078AE5D4
:101D30000E947F07FE01E558FF4F80E090E0AAE790
:101D4000B3E480839183A283B3838E0109581F4F2C
:101D5000FE01E558FF4F608171818281938126E603
:101D600036E646E655E40E94C81EDC01CB01F801C8
:101D700080839183A283B383FE01E958FF4F608182
:101D800071818281938120E030E040E85FE30E942E
:101D9000CE20882344F4FE01EB58FF4F81E090E011
:101DA0009183808364C0FE01E958FF4F6081718197
:101DB0008281938120E03FEF4FE757E40E946E203D
:101DC00018160CF043C0FE01E558FF4F6081718189
:101DD0008281938120E030E040E251E40E94C81EFD
:101DE000DC01CB018E010B581F4FBC01CD010E94BD
:101DF000F21CDC01CB01F801918380831FC0FE013E
:101E0000ED58FF4F80E791E091838083FE01ED580C
:101E1000FF4F808191810197F1F7FE01ED58FF4F4F
:101E200091838083DE01AB58BF4FFE01EB58FF4F1B
:101E300080819181019711969C938E93FE01EB58BE
:101E4000FF4F808191810097D1F627C08E010B58FA
:101E50001F4FFE01E958FF4F60817181828193819C
:101E60000E94F21CDC01CB01F80191838083DE012A
:101E7000AF58BF4FFE01EB58FF4F808191818D938A
:101E80009C93FE01EF58FF4F808191810197F1F7FC
:101E9000FE01EF58FF4F9183808381E40E94C706C3
:101EA00086E40E945107FE01E359FF4F80E090E075
:101EB000AAE7B3E480839183A283B3838E01075999
:101EC0001F4FFE01E359FF4F608171818281938131
:101ED00026E636E646E655E40E94C81EDC01CB0144
:101EE000F80180839183A283B383FE01E759FF4FFA
:101EF000608171818281938120E030E040E85FE37E
:101F00000E94CE20882344F4FE01E959FF4F81E06E
:101F100090E09183808364C0FE01E759FF4F6081A8
:101F200071818281938120E03FEF4FE757E40E9467
:101F30006E2018160CF043C0FE01E359FF4F60817C
:101F400071818281938120E030E040E251E40E947F
:101F5000C81EDC01CB018E0109591F4FBC01CD0108
:101F60000E94F21CDC01CB01F801918380831FC029
:101F7000FE01EB59FF4F80E791E091838083FE01E2
:101F8000EB59FF4F808191810197F1F7FE01EB59E9
:101F9000FF4F91838083DE01A959BF4FFE01E959AC
:101FA000FF4F80819181019711969C938E93FE0142
:101FB000E959FF4F808191810097D1F627C08E01AA
:101FC00009591F4FFE01E759FF4F608171818281DE
:101FD00093810E94F21CDC01CB01F8019183808384
:101FE000DE01AD59BF4FFE01E959FF4F808191815C
:101FF0008D939C93FE01ED59FF4F80819181019754
:10200000F1F7FE01ED59FF4F918380838DE70E9428
:10201000DE0687E30E946807FE01E15AFF4F80E079
:1020200090E0AAE7B3E480839183A283B3838E0117
:10203000055A1F4FFE01E15AFF4F60817181828175
:10204000938126E636E646E655E40E94C81EDC018A
:10205000CB01F80180839183A283B383FE01E55A0B
:10206000FF4F608171818281938120E030E040E800
:102070005FE30E94CE20882344F4FE01E75AFF4F1D
:1020800081E090E09183808364C0FE01E55AFF4FB8
:10209000608171818281938120E03FEF4FE757E4B7
:1020A0000E946E2018160CF043C0FE01E15AFF4F4B
:1020B000608171818281938120E030E040E251E4CF
:1020C0000E94C81EDC01CB018E01075A1F4FBC01C4
:1020D000CD010E94F21CDC01CB01F80191838083C9
:1020E0001FC0FE01E95AFF4F80E791E09183808392
:1020F000FE01E95AFF4F808191810197F1F7FE01BE
:10210000E95AFF4F91838083DE01A75ABF4FFE013A
:10211000E75AFF4F80819181019711969C938E938E
:10212000FE01E75AFF4F808191810097D1F627C0C9
:102130008E01075A1F4FFE01E55AFF4F60817181E2
:10214000828193810E94F21CDC01CB01F801918312
:102150008083DE01AB5ABF4FFE01E75AFF4F8081FB
:1021600091818D939C93FE01EB5AFF4F8081918169
:102170000197F1F7FE01EB5AFF4F918380838AE5C7
:102180000E9454068AE50E946B068AE50E94AD070C
:102190008AE50E94C407FE01EF5AFF4F80E090E0FD
:1021A000AAE7B3E480839183A283B3838E01035BA8
:1021B0001F4FFE01EF5AFF4F608171818281938131
:1021C00026E636E646E655E40E94C81EDC01CB0151
:1021D000F80180839183A283B383FE01E35BFF4F09
:1021E000608171818281938120E030E040E85FE38B
:1021F0000E94CE20882344F4FE01E55BFF4F81E07E
:1022000090E09183808364C0FE01E35BFF4F6081B7
:1022100071818281938120E03FEF4FE757E40E9474
:102220006E2018160CF043C0FE01EF5AFF4F60817C
:1022300071818281938120E030E040E251E40E948C
:10224000C81EDC01CB018E01055B1F4FBC01CD0117
:102250000E94F21CDC01CB01F801918380831FC036
:10226000FE01E75BFF4F80E791E091838083FE01F1
:10227000E75BFF4F808191810197F1F7FE01E75BFA
:10228000FF4F91838083DE01A55BBF4FFE01E55BBD
:10229000FF4F80819181019711969C938E93FE014F
:1022A000E55BFF4F808191810097D1F627C08E01B9
:1022B000055B1F4FFE01E35BFF4F608171818281EF
:1022C00093810E94F21CDC01CB01F8019183808391
:1022D000DE01A95BBF4FFE01E55BFF4F808191816D
:1022E0008D939C93FE01E95BFF4F80819181019763
:1022F000F1F7FE01E95BFF4F918380838BE90E9438
:102300003D0683E70E949607FE01ED5BFF4F80E0EC
:1023100090E0AAE7B3E480839183A283B3838E0124
:10232000015C1F4FFE01ED5BFF4F60817181828177
:10233000938126E636E646E655E40E94C81EDC0197
:10234000CB01F80180839183A283B383FE01FF96C2
:10235000608171818281938120E030E040E85FE319
:102360000E94CE2088232CF481E090E09EAF8DAFB8
:1023700046C0FE01FF96608171818281938120E0D9
:102380003FEF4FE757E40E946E20181664F5FE01F8
:10239000ED5BFF4F608171818281938120E030E0AD
:1023A00040E251E40E94C81EDC01CB01BC01CD011A
:1023B0000E94F21CDC01CB019EAF8DAF0FC080E705
:1023C00091E09CAF8BAF8BAD9CAD0197F1F79CAFCB
:1023D0008BAF8DAD9EAD01979EAF8DAF8DAD9EAD98
:1023E000009769F716C0FE01FF96608171818281B6
:1023F00093810E94F21CDC01CB019EAF8DAF8DADAD
:102400009EAD9AAF89AF89AD9AAD0197F1F79AAFBA
:1024100089AF8DE70E94540687E30E94AD0780E0F4
:1024200090E0AAE7B3E48DAB9EABAFABB8AF6DA9BC
:102430007EA98FA998AD26E636E646E655E40E94C9
:10244000C81EDC01CB0189AB9AABABABBCAB69A9B5
:102450007AA98BA99CA920E030E040E85FE30E94C4
:10246000CE2088232CF481E090E098AB8FA73FC06A
:1024700069A97AA98BA99CA920E03FEF4FE757E40F
:102480000E946E2018164CF56DA97EA98FA998ADF3
:1024900020E030E040E251E40E94C81EDC01CB01A4
:1024A000BC01CD010E94F21CDC01CB0198AB8FA7CF
:1024B0000FC080E791E09EA78DA78DA59EA50197EF
:1024C000F1F79EA78DA78FA598A9019798AB8FA725
:1024D0008FA598A9009769F714C069A97AA98BA953
:1024E0009CA90E94F21CDC01CB0198AB8FA78FA5A1
:1024F00098A99CA78BA78BA59CA50197F1F79CA7F2
:102500008BA78AE50E9499068AE50E94B0068AE5B3
:102510000E9423078AE50E943A0780E090E0AAE73C
:10252000B3E48FA398A7A9A7BAA76FA178A589A597
:102530009AA526E636E646E655E40E94C81EDC016A
:10254000CB018BA39CA3ADA3BEA36BA17CA18DA14A
:102550009EA120E030E040E85FE30E94CE20882387
:102560002CF481E090E09AA389A33FC06BA17CA1E9
:102570008DA19EA120E03FEF4FE757E40E946E201F
:1025800018164CF56FA178A589A59AA520E030E032
:1025900040E251E40E94C81EDC01CB01BC01CD0128
:1025A0000E94F21CDC01CB019AA389A30FC080E733
:1025B00091E098A38F8F8F8D98A10197F1F798A341
:1025C0008F8F89A19AA101979AA389A389A19AA122
:1025D000009769F714C06BA17CA18DA19EA10E94F8
:1025E000F21CDC01CB019AA389A389A19AA19E8F39
:1025F0008D8F8D8D9E8D0197F1F79E8F8D8F8EE63D
:102600000E94820689E10E940C0780E090E0AAE720
:10261000B3E4898F9A8FAB8FBC8F698D7A8D8B8D48
:102620009C8D26E636E646E655E40E94C81EDC018F
:10263000CB018D8B9E8BAF8BB88F6D897E898F89F7
:10264000988D20E030E040E85FE30E94CE208823B0
:102650002CF481E090E09C8B8B8B3FC06D897E8950
:102660008F89988D20E03FEF4FE757E40E946E205E
:1026700018164CF5698D7A8D8B8D9C8D20E030E09D
:1026800040E251E40E94C81EDC01CB01BC01CD0137
:102690000E94F21CDC01CB019C8B8B8B0FC080E76E
:1026A00091E09A8B898B89899A890197F1F79A8BA6
:1026B000898B8B899C8901979C8B8B8B8B899C89BF
:1026C000009769F714C06D897E898F89988D0E9463
:1026D000F21CDC01CB019C8B8B8B8B899C89988BAA
:1026E0008F878F8598890197F1F7988B8F878DE772
:1026F0000E94990687E30E94230780E090E0AAE702
:10270000B3E48B879C87AD87BE876B857C858D8581
:102710009E8526E636E646E655E40E94C81EDC01A4
:10272000CB018F839887A987BA876F817885898540
:102730009A8520E030E040E85FE30E94CE208823C5
:102740002CF481E090E09E838D833FC06F8178857B
:1027500089859A8520E03FEF4FE757E40E946E207D
:1027600018164CF56B857C858D859E8520E030E0C4
:1027700040E251E40E94C81EDC01CB01BC01CD0146
:102780000E94F21CDC01CB019E838D830FC080E789
:1027900091E09C838B838B819C810197F1F79C83D3
:1027A0008B838D819E8101979E838D838D819E81F8
:1027B000009769F714C06F81788589859A850E9492
:1027C000F21CDC01CB019E838D838D819E819A83D7
:1027D000898389819A810197F1F79A838983C25805
:1027E000DF4F0FB6F894DEBF0FBECDBFCF91DF91A4
:1027F0001F910F910895DF93CF93CDB7DEB78DE290
:102800000E9482068DE20E940C078DE20E949607CC
:10281000CF91DF910895DF93CF93CDB7DEB787E8EF
:102820000E94820687E80E940C0787E80E949607AC
:10283000CF91DF910895DF93CF93CDB7DEB78AE5CF
:102840000E9499068AE50E9423078AE50E94AD0747
:10285000CF91DF910895DF93CF93CDB7DEB78DE7AA
:102860000E94990687E30E94230787E30E94AD0731
:10287000CF91DF910895DF93CF93CDB7DEB78DE28F
:102880000E943D068DE20E94C7068DE20E9451071C
:10289000CF91DF910895DF93CF93CDB7DEB787E86F
:1028A0000E943D0687E80E94C70687E80E945107FC
:1028B000CF91DF910895DF93CF93CDB7DEB78AE54F
:1028C0000E9454068AE50E94DE068AE50E94680797
:1028D000CF91DF910895DF93CF93CDB7DEB78DE72A
:1028E0000E9454068DE70E94DE0687E30E94680777
:1028F000CF91DF910895DF93CF93CDB7DEB7E897FF
:102900000FB6F894DEBF0FBECDBF0E941B140E940D
:10291000FB1380E090E0AAE7B3E48DAB9EABAFABD6
:10292000B8AF6DA97EA98FA998AD26E636E646E632
:1029300055E40E94C81EDC01CB0189AB9AABABAB5E
:10294000BCAB69A97AA98BA99CA920E030E040E83A
:102950005FE30E94CE2088232CF481E090E098ABC6
:102960008FA73FC069A97AA98BA99CA920E03FEF56
:102970004FE757E40E946E2018164CF56DA97EA90A
:102980008FA998AD20E030E040E251E40E94C81EDB
:10299000DC01CB01BC01CD010E94F21CDC01CB01AA
:1029A00098AB8FA70FC080E791E09EA78DA78DA55C
:1029B0009EA50197F1F79EA78DA78FA598A90197CE
:1029C00098AB8FA78FA598A9009769F714C069A93C
:1029D0007AA98BA99CA90E94F21CDC01CB0198ABBF
:1029E0008FA78FA598A99CA78BA78BA59CA50197BE
:1029F000F1F79CA78BA70E942B1480E090E0AAE738
:102A0000B3E48FA398A7A9A7BAA76FA178A589A5B2
:102A10009AA526E636E646E655E40E94C81EDC0185
:102A2000CB018BA39CA3ADA3BEA36BA17CA18DA165
:102A30009EA120E030E040E85FE30E94CE208823A2
:102A40002CF481E090E09AA389A33FC06BA17CA104
:102A50008DA19EA120E03FEF4FE757E40E946E203A
:102A600018164CF56FA178A589A59AA520E030E04D
:102A700040E251E40E94C81EDC01CB01BC01CD0143
:102A80000E94F21CDC01CB019AA389A30FC080E74E
:102A900091E098A38F8F8F8D98A10197F1F798A35C
:102AA0008F8F89A19AA101979AA389A389A19AA13D
:102AB000009769F714C06BA17CA18DA19EA10E9413
:102AC000F21CDC01CB019AA389A389A19AA19E8F54
:102AD0008D8F8D8D9E8D0197F1F79E8F8D8F0E942A
:102AE0005B140E943B1480E090E0AAE7B3E4898F76
:102AF0009A8FAB8FBC8F698D7A8D8B8D9C8D26E6DE
:102B000036E646E655E40E94C81EDC01CB018D8BFB
:102B10009E8BAF8BB88F6D897E898F89988D20E0D1
:102B200030E040E85FE30E94CE2088232CF481E06F
:102B300090E09C8B8B8B3FC06D897E898F89988DAF
:102B400020E03FEF4FE757E40E946E2018164CF547
:102B5000698D7A8D8B8D9C8D20E030E040E251E4D0
:102B60000E94C81EDC01CB01BC01CD010E94F21CF9
:102B7000DC01CB019C8B8B8B0FC080E791E09A8BA3
:102B8000898B89899A890197F1F79A8B898B8B892F
:102B90009C8901979C8B8B8B8B899C89009769F70B
:102BA00014C06D897E898F89988D0E94F21CDC018A
:102BB000CB019C8B8B8B8B899C89988B8F878F8586
:102BC00098890197F1F7988B8F870E946B1480E0AA
:102BD00090E0AAE7B3E48B879C87AD87BE876B85BF
:102BE0007C858D859E8526E636E646E655E40E9480
:102BF000C81EDC01CB018F839887A987BA876F81B4
:102C0000788589859A8520E030E040E85FE30E947E
:102C1000CE2088232CF481E090E09E838D833FC0FA
:102C20006F81788589859A8520E03FEF4FE757E4EB
:102C30000E946E2018164CF56B857C858D859E85CF
:102C400020E030E040E251E40E94C81EDC01CB01EC
:102C5000BC01CD010E94F21CDC01CB019E838D835F
:102C60000FC080E791E09C838B838B819C810197CF
:102C7000F1F79C838B838D819E8101979E838D8349
:102C80008D819E81009769F714C06F817885898551
:102C90009A850E94F21CDC01CB019E838D838D817D
:102CA0009E819A83898389819A810197F1F79A831A
:102CB0008983E8960FB6F894DEBF0FBECDBFCF91E3
:102CC000DF910895DF93CF93CDB7DEB7E8970FB6C6
:102CD000F894DEBF0FBECDBF0E941B140E940B14E0
:102CE00080E090E0AAE7B3E48DAB9EABAFABB8AFAA
:102CF0006DA97EA98FA998AD26E636E646E655E48D
:102D00000E94C81EDC01CB0189AB9AABABABBCAB5C
:102D100069A97AA98BA99CA920E030E040E85FE38B
:102D20000E94CE2088232CF481E090E098AB8FA7FE
:102D30003FC069A97AA98BA99CA920E03FEF4FE782
:102D400057E40E946E2018164CF56DA97EA98FA934
:102D500098AD20E030E040E251E40E94C81EDC0162
:102D6000CB01BC01CD010E94F21CDC01CB0198AB70
:102D70008FA70FC080E791E09EA78DA78DA59EA588
:102D80000197F1F79EA78DA78FA598A9019798ABFA
:102D90008FA78FA598A9009769F714C069A97AA988
:102DA0008BA99CA90E94F21CDC01CB0198AB8FA7D8
:102DB0008FA598A99CA78BA78BA59CA50197F1F738
:102DC0009CA78BA70E942B1480E090E0AAE7B3E4B5
:102DD0008FA398A7A9A7BAA76FA178A589A59AA537
:102DE00026E636E646E655E40E94C81EDC01CB0125
:102DF0008BA39CA3ADA3BEA36BA17CA18DA19EA11F
:102E000020E030E040E85FE30E94CE2088232CF4ED
:102E100081E090E09AA389A33FC06BA17CA18DA122
:102E20009EA120E03FEF4FE757E40E946E20181666
:102E30004CF56FA178A589A59AA520E030E040E285
:102E400051E40E94C81EDC01CB01BC01CD010E94EF
:102E5000F21CDC01CB019AA389A30FC080E791E0AB
:102E600098A38F8F8F8D98A10197F1F798A38F8FDB
:102E700089A19AA101979AA389A389A19AA10097F0
:102E800069F714C06BA17CA18DA19EA10E94F21CC8
:102E9000DC01CB019AA389A389A19AA19E8F8D8F72
:102EA0008D8D9E8D0197F1F79E8F8D8F0E945B1403
:102EB0000E944B1480E090E0AAE7B3E4898F9A8FD8
:102EC000AB8FBC8F698D7A8D8B8D9C8D26E636E617
:102ED00046E655E40E94C81EDC01CB018D8B9E8B1B
:102EE000AF8BB88F6D897E898F89988D20E030E017
:102EF00040E85FE30E94CE2088232CF481E090E03C
:102F00009C8B8B8B3FC06D897E898F89988D20E04B
:102F10003FEF4FE757E40E946E2018164CF5698D7D
:102F20007A8D8B8D9C8D20E030E040E251E40E9450
:102F3000C81EDC01CB01BC01CD010E94F21CDC01EA
:102F4000CB019C8B8B8B0FC080E791E09A8B898B98
:102F500089899A890197F1F79A8B898B8B899C894A
:102F600001979C8B8B8B8B899C89009769F714C088
:102F70006D897E898F89988D0E94F21CDC01CB01BE
:102F80009C8B8B8B8B899C89988B8F878F8598895D
:102F90000197F1F7988B8F870E946B1480E090E087
:102FA000AAE7B3E48B879C87AD87BE876B857C855A
:102FB0008D859E8526E636E646E655E40E94C81EC7
:102FC000DC01CB018F839887A987BA876F817885C9
:102FD00089859A8520E030E040E85FE30E94CE20BA
:102FE00088232CF481E090E09E838D833FC06F8125
:102FF000788589859A8520E03FEF4FE757E40E9466
:103000006E2018164CF56B857C858D859E8520E09D
:1030100030E040E251E40E94C81EDC01CB01BC015B
:10302000CD010E94F21CDC01CB019E838D830FC079
:1030300080E791E09C838B838B819C810197F1F7E2
:103040009C838B838D819E8101979E838D838D814F
:103050009E81009769F714C06F81788589859A856C
:103060000E94F21CDC01CB019E838D838D819E81A9
:103070009A83898389819A810197F1F79A83898359
:10308000E8960FB6F894DEBF0FBECDBFCF91DF91AB
:103090000895DF93CF93CDB7DEB72E970FB6F89490
:1030A000DEBF0FBECDBF81E0809312030E947B1470
:1030B0000E94CA0880E090E0AAE7B3E48B879C876F
:1030C000AD87BE876B857C858D859E8526E636E639
:1030D00046E655E40E94C81EDC01CB018F83988729
:1030E000A987BA876F81788589859A8520E030E045
:1030F00040E85FE30E94CE2088232CF481E090E03A
:103100009E838D833FC06F81788589859A8520E075
:103110003FEF4FE757E40E946E2018164CF56B8581
:103120007C858D859E8520E030E040E251E40E9460
:10313000C81EDC01CB01BC01CD010E94F21CDC01E8
:10314000CB019E838D830FC080E791E09C838B83AE
:103150008B819C810197F1F79C838B838D819E816C
:1031600001979E838D838D819E81009769F714C09E
:103170006F81788589859A850E94F21CDC01CB01DC
:103180009E838D838D819E819A83898389819A8193
:103190000197F1F79A838983109212032E960FB646
:1031A000F894DEBF0FBECDBFCF91DF910895DF93BE
:1031B000CF93CDB7DEB72E970FB6F894DEBF0FBE14
:1031C000CDBF81E0809312030E9462160E94CA085C
:1031D00080E090E0AAE7B3E48B879C87AD87BE8749
:1031E0006B857C858D859E8526E636E646E655E42C
:1031F0000E94C81EDC01CB018F839887A987BA87FC
:103200006F81788589859A8520E030E040E85FE32A
:103210000E94CE2088232CF481E090E09E838D8351
:103220003FC06F81788589859A8520E03FEF4FE721
:1032300057E40E946E2018164CF56B857C858D85B1
:103240009E8520E030E040E251E40E94C81EDC018F
:10325000CB01BC01CD010E94F21CDC01CB019E839D
:103260008D830FC080E791E09C838B838B819C8151
:103270000197F1F79C838B838D819E8101979E83BB
:103280008D838D819E81009769F714C06F81788549
:1032900089859A850E94F21CDC01CB019E838D8377
:1032A0008D819E819A83898389819A810197F1F723
:1032B0009A838983109212032E960FB6F894DEBF7C
:1032C0000FBECDBFCF91DF910895DF93CF93CDB7E0
:1032D000DEB781E0809312030E9407090E948D08E7
:1032E00010921203CF91DF910895DF93CF93CDB762
:1032F000DEB781E0809312030E94810E0E948D0848
:1033000010921203CF91DF910895DF93CF93CDB741
:10331000DEB7809112038823D9F48091280386397F
:1033200018F00E94651914C0809128038D3618F496
:103330000E9475190DC080912903863918F00E94EA
:10334000D71806C0809129038D3610F40E944918C1
:10335000809126030E94DB07809127030E941D08AD
:1033600010921503CF91DF9108951F920F920FB61F
:103370000F9200905B000F9211248F939F93EF9315
:10338000FF93DF93CF930F92CDB7DEB71982E6ECB0
:10339000F0E08081898380911B038823B9F08091BC
:1033A0001903882F90E0FC01EA5DFC4F898180833E
:1033B000809119038F5F80931903809119038830DE
:1033C00028F010921B0381E080931A03809102027F
:1033D000823079F48981823449F483E08093020257
:1033E0001092190381E080931B0303C081E0809356
:1033F000020280910202813031F48981863419F40D
:1034000082E08093020280911A03813069F481E0A6
:103410008093160381E08093020210921A03809138
:1034200018038F5F809318030F90CF91DF91FF9166
:10343000EF919F918F910F9000925B000F900FBEC4
:103440000F901F901895DF93CF93CDB7DEB7F89408
:103450000E9495000E9405010E9439010E94C60049
:10346000EFE6F0E08FE080837894CF91DF910895CC
:103470000F931F93DF93CF93CDB7DEB7C654D040E1
:103480000FB6F894DEBF0FBECDBF109212030E949C
:10349000231A0E9455010E94CA08FE01ED5BFF4FEE
:1034A00080E090E8ABE3B5E480839183A283B383AB
:1034B0008E01015C1F4FFE01ED5BFF4F608171814A
:1034C0008281938126E636E646E655E40E94C81ED0
:1034D000DC01CB01F80180839183A283B383FE01D9
:1034E000FF96608171818281938120E030E040E825
:1034F0005FE30E94CE2088232CF481E090E09EAF11
:103500008DAF46C0FE01FF966081718182819381FB
:1035100020E03FEF4FE757E40E946E20181664F555
:10352000FE01ED5BFF4F608171818281938120E01C
:1035300030E040E251E40E94C81EDC01CB01BC0136
:10354000CD010E94F21CDC01CB019EAF8DAF0FC0FC
:1035500080E791E09CAF8BAF8BAD9CAD0197F1F70D
:103560009CAF8BAF8DAD9EAD01979EAF8DAF8DADF6
:103570009EAD009769F716C0FE01FF9660817181CC
:10358000828193810E94F21CDC01CB019EAF8DAF42
:103590008DAD9EAD9AAF89AF89AD9AAD0197F1F728
:1035A0009AAF89AF809115038130B1F5E0ECF0E07E
:1035B0008081882F90E0807290700097B9F3E6ECDC
:1035C000F0E08EE48083E0ECF0E08081882F90E0F2
:1035D000807290700097B9F3E6ECF0E085E48083A8
:1035E000E0ECF0E08081882F90E08072907000978E
:1035F000B9F3E6ECF0E088E58083E0ECF0E0808170
:10360000882F90E0807290700097B9F3E6ECF0E0BC
:1036100082E580831092150380911603813021F496
:103620000E9485191092160380911703882309F0D0
:10363000B9CF809118038B3008F4B4CF81E0809328
:1036400017030E94DB0080E090E0A8ECB3E48DABB0
:103650009EABAFABB8AF6DA97EA98FA998AD26E69A
:1036600036E646E655E40E94C81EDC01CB0189AB74
:103670009AABABABBCAB69A97AA98BA99CA920E09A
:1036800030E040E85FE30E94CE2088232CF481E004
:1036900090E098AB8FA73FC069A97AA98BA99CA994
:1036A00020E03FEF4FE757E40E946E2018164CF5DC
:1036B0006DA97EA98FA998AD20E030E040E251E4E9
:1036C0000E94C81EDC01CB01BC01CD010E94F21C8E
:1036D000DC01CB0198AB8FA70FC080E791E09EA7DC
:1036E0008DA78DA59EA50197F1F79EA78DA78FA504
:1036F00098A9019798AB8FA78FA598A9009769F70C
:1037000014C069A97AA98BA99CA90E94F21CDC01AA
:10371000CB0198AB8FA78FA598A99CA78BA78BA54A
:103720009CA50197F1F79CA78BA70E94F00080E071
:1037300090E0A8ECB3E48FA398A7A9A7BAA76FA1BC
:1037400078A589A59AA526E636E646E655E40E94C0
:10375000C81EDC01CB018BA39CA3ADA3BEA36BA1B0
:103760007CA18DA19EA120E030E040E85FE30E94B3
:10377000CE2088232CF481E090E09AA389A33FC057
:103780006BA17CA18DA19EA120E03FEF4FE757E404
:103790000E946E2018164CF56FA178A589A59AA5F0
:1037A00020E030E040E251E40E94C81EDC01CB0181
:1037B000BC01CD010E94F21CDC01CB019AA389A3BC
:1037C0000FC080E791E098A38F8F8F8D98A101970C
:1037D000F1F798A38F8F89A19AA101979AA389A342
:1037E00089A19AA1009769F714C06BA17CA18DA152
:1037F0009EA10E94F21CDC01CB019AA389A389A19E
:103800009AA19E8F8D8F8D8D9E8D0197F1F79E8F42
:103810008D8F0E94DB0080E090E0A8ECB3E4898FFC
:103820009A8FAB8FBC8F698D7A8D8B8D9C8D26E6A0
:1038300036E646E655E40E94C81EDC01CB018D8BBE
:103840009E8BAF8BB88F6D897E898F89988D20E094
:1038500030E040E85FE30E94CE2088232CF481E032
:1038600090E09C8B8B8B3FC06D897E898F89988D72
:1038700020E03FEF4FE757E40E946E2018164CF50A
:10388000698D7A8D8B8D9C8D20E030E040E251E493
:103890000E94C81EDC01CB01BC01CD010E94F21CBC
:1038A000DC01CB019C8B8B8B0FC080E791E09A8B66
:1038B000898B89899A890197F1F79A8B898B8B89F2
:1038C0009C8901979C8B8B8B8B899C89009769F7CE
:1038D00014C06D897E898F89988D0E94F21CDC014D
:1038E000CB019C8B8B8B8B899C89988B8F878F8549
:1038F00098890197F1F7988B8F870E94F00080E0FC
:1039000090E0A8ECB3E48B879C87AD87BE876B857E
:103910007C858D859E8526E636E646E655E40E9442
:10392000C81EDC01CB018F839887A987BA876F8176
:10393000788589859A8520E030E040E85FE30E9441
:10394000CE2088232CF481E090E09E838D833FC0BD
:103950006F81788589859A8520E03FEF4FE757E4AE
:103960000E946E2018164CF56B857C858D859E8592
:1039700020E030E040E251E40E94C81EDC01CB01AF
:10398000BC01CD010E94F21CDC01CB019E838D8322
:103990000FC080E791E09C838B838B819C81019792
:1039A000F1F79C838B838D819E8101979E838D830C
:1039B0008D819E81009769F7F5CD6F817885898526
:1039C0009A850E94F21CDC01CB019E838D838D8140
:1039D0009E819A83898389819A810197F1F79A83DD
:1039E0008983E0CDEF92FF920F931F937B018C01AF
:1039F00020E030E040E05FE40E949E2088238CF0CD
:103A0000C801B70120E030E040E05FE40E946A1E98
:103A10000E945C219B01AC01205030404040504846
:103A200006C0C801B7010E945C219B01AC01B9012D
:103A3000CA011F910F91FF90EF900895A0E0B0E0B0
:103A4000E4E2FDE10C94A523DC012B01FA019C9139
:103A5000923008F439C1EB018881823008F433C117
:103A6000943069F4843009F02FC111969C9111971C
:103A70008981981709F428C1A3E0B2E025C18430F8
:103A800009F421C18230A9F4923009F01DC19A01D4
:103A9000AD0188E0EA010990AE01E90109929E01B9
:103AA0008150C1F7E201898111969C91892381831C
:103AB00008C1923009F407C112962D903C901397DB
:103AC000EB018A819B811496AD90BD90CD90DC90E6
:103AD0001797EC80FD800E811F819101281B390B07
:103AE000B90137FF04C066277727621B730B60326A
:103AF00071050CF061C0121613066CF53701480110
:103B0000062E04C096948794779467940A94D2F70B
:103B100021E030E040E050E004C0220F331F441F9A
:103B2000551F6A95D2F721503040404050402E2119
:103B30003F2140235123211531054105510521F035
:103B400021E030E040E050E079018A01E628F728E2
:103B5000082919293CC0232BD1F1260E371E350127
:103B60004601062E04C096948794779467940A942D
:103B7000D2F721E030E040E050E004C0220F331FD4
:103B8000441F551F6A95D2F72150304040405040A5
:103B90002A213B214C215D2121153105410551058B
:103BA00021F021E030E040E050E059016A01A62810
:103BB000B728C828D9280BC0821593052CF01C0102
:103BC000AA24BB24650103C0EE24FF2487011196BB
:103BD0009C91D20111968C91981709F445C09923B4
:103BE00039F0A80197012A193B094C095D0906C063
:103BF000A60195012E193F09400B510B57FD08C036
:103C000011823382228224833583468357831DC0E9
:103C100081E081833382228288279927DC01821BFD
:103C2000930BA40BB50B84839583A683B7830DC038
:103C3000220F331F441F551F248335834683578328
:103C40008281938101979383828324813581468188
:103C50005781DA01C9010197A109B1098F5F9F4F0F
:103C6000AF4FBF4328F30BC0918333822282EA0C0B
:103C7000FB1C0C1D1D1DE482F5820683178383E067
:103C80008083248135814681578157FF1AC0C9013D
:103C9000AA2797FDA095BA2F81709070A070B07080
:103CA0005695479537952795822B932BA42BB52BAB
:103CB00084839583A683B7838281938101969383BE
:103CC0008283DF0101C0D201CD01CDB7DEB7E2E1D1
:103CD0000C94C123A0E2B0E0E0E7FEE10C94B12334
:103CE00069837A838B839C832D833E834F8358879C
:103CF000E9E0EE2EF12CEC0EFD1ECE010196B7018F
:103D00000E94D4228E010F5E1F4FCE010596B8018E
:103D10000E94D4228A8991E089278A8BC701B80141
:103D2000AE01475E5F4F0E941E1D0E94FF21A096BC
:103D3000E6E00C94CD23A0E2B0E0E1EAFEE10C94D1
:103D4000B12369837A838B839C832D833E834F8346
:103D50005887F9E0EF2EF12CEC0EFD1ECE010196F6
:103D6000B7010E94D4228E010F5E1F4FCE0105962F
:103D7000B8010E94D422C701B801AE01475E5F4F6F
:103D80000E941E1D0E94FF21A096E6E00C94CD2308
:103D9000A0E2B0E0EEECFEE10C94A52369837A8307
:103DA0008B839C832D833E834F835887CE0101965E
:103DB000BE01675F7F4F0E94D422CE010596BE01EF
:103DC0006F5E7F4F0E94D4229985923088F0898956
:103DD0008230C8F0943019F4823051F404C0843039
:103DE00029F4923081F483E092E0C6C0923049F425
:103DF00020E09A858A89981321E02A87CE010996C6
:103E0000BBC0823049F420E09A858A89981321E06A
:103E10002A8BCE014196B0C02D843E844F845888B1
:103E20006D887E888F88988CEE24FF248701AA24D1
:103E3000BB24650140E050E060E070E0E0E0F0E0CD
:103E4000C10181709070892BE9F0E60CF71C081D08
:103E5000191D9A01AB012A0D3B1D4C1D5D1D80E013
:103E600090E0A0E0B0E0E614F7040805190520F49E
:103E700081E090E0A0E0B0E0BA01A901480F591F2D
:103E80006A1F7B1FAA0CBB1CCC1CDD1C97FE08C044
:103E900081E090E0A0E0B0E0A82AB92ACA2ADB2A93
:103EA0003196E032F10549F0660C771C881C991CAC
:103EB0005694479437942794C3CFFA85EA892B897F
:103EC0003C898B859C85280F391F2E5F3F4F17C07B
:103ED000CA0181709070892B61F016950795F7944F
:103EE000E79480E090E0A0E0B0E8E82AF92A0A2B05
:103EF0001B2B76956795579547952F5F3F4F77FD1D
:103F0000E7CF0CC0440F551F661F771F17FD416098
:103F1000EE0CFF1C001F111F21503040403090E07C
:103F2000590790E0690790E4790760F32B8F3C8F85
:103F3000DB01CA018F779070A070B070803491055A
:103F4000A105B10561F447FD0AC0E114F1040105C2
:103F5000110529F0405C5F4F6F4F7F4F40781A8EFC
:103F6000FE1711F081E08A8F4D8F5E8F6F8F78A3DF
:103F700083E0898FCE0149960E94FF21A096E2E15D
:103F80000C94C123A8E1B0E0E8ECFFE10C94AD2370
:103F900069837A838B839C832D833E834F835887E9
:103FA000B9E0EB2EF12CEC0EFD1ECE010196B7010F
:103FB0000E94D4228E010F5E1F4FCE010596B801DC
:103FC0000E94D4222985223008F47EC039893230FB
:103FD00010F4B8017CC08A859A8989278A872430A1
:103FE00011F0223031F4231709F06EC063E072E063
:103FF0006EC0343039F41D861E861F86188A1C86D2
:104000001B8604C0323021F484E08987B7015FC089
:104010002B853C858B899C89281B390B3C872B87FA
:10402000ED84FE840F851889AD88BE88CF88D88C32
:10403000EA14FB040C051D0540F4EE0CFF1C001FE8
:10404000111F215030403C872B8720E030E040E0BA
:1040500050E080E090E0A0E0B0E460E070E0EA14BE
:10406000FB040C051D0540F0282B392B4A2B5B2B3C
:10407000EA18FB080C091D09B695A7959795879531
:10408000EE0CFF1C001F111F6F5F7F4F6F3171051A
:1040900031F7DA01C9018F779070A070B070803469
:1040A0009105A105B10561F427FD0AC0E114F104F1
:1040B0000105110529F0205C3F4F4F4F5F4F2078DD
:1040C0002D873E874F87588BBE01675F7F4FCB019F
:1040D0000E94FF216896EAE00C94C923A8E1B0E0B1
:1040E000E4E7F0E20C94B12369837A838B839C83A9
:1040F0002D833E834F83588789E0E82EF12CEC0E08
:10410000FD1ECE010196B7010E94D4228E010F5EE2
:104110001F4FCE010596B8010E94D42289858230B6
:1041200040F08989823028F0C701B8010E944C23F1
:1041300001C08FEF6896E6E00C94CD23A8E1B0E0D3
:10414000E4EAF0E20C94B12369837A838B839C8345
:104150002D833E834F83588789E0E82EF12CEC0EA7
:10416000FD1ECE010196B7010E94D4228E010F5E82
:104170001F4FCE010596B8010E94D4228985823056
:1041800040F08989823028F0C701B8010E944C2391
:1041900001C08FEF6896E6E00C94CD23A8E1B0E073
:1041A000E4EDF0E20C94B12369837A838B839C83E2
:1041B0002D833E834F83588789E0E82EF12CEC0E47
:1041C000FD1ECE010196B7010E94D4228E010F5E22
:1041D0001F4FCE010596B8010E94D42289858230F6
:1041E00040F08989823028F0C701B8010E944C2331
:1041F00001C081E06896E6E00C94CD23A8E0B0E031
:10420000E4E0F1E20C94AE239B01AC0183E08983EE
:10421000DA01C9018827B7FD83959927AA27BB270B
:10422000B82E211531054105510519F482E0898325
:104230003AC08823A9F0203080E0380780E04807A2
:1042400080E8580729F460E070E080E09FEC30C01F
:10425000EE24FF248701E21AF30A040B150B02C0B7
:1042600079018A018EE1C82ED12CDC82CB82ED82CD
:10427000FE820F831887C801B7010E94B021019701
:104280001816190684F4082E04C0EE0CFF1C001F3B
:10429000111F0A94D2F7ED82FE820F831887C81A85
:1042A000D90ADC82CB82BA82CE0101960E94FF211C
:1042B0002896E9E00C94CA23ACE0B0E0E2E6F1E233
:1042C0000C94B52369837A838B839C83CE010196FA
:1042D000BE016B5F7F4F0E94D4228D81823061F1DD
:1042E000823050F1843021F48E81882351F12EC028
:1042F0002F81388537FD20C06E812F3131051CF0AC
:104300006623F9F023C08EE190E0821B930B298590
:104310003A854B855C8504C056954795379527951A
:104320008A95D2F76623B1F0509540953095219546
:104330003F4F4F4F5F4F0EC020E030E040E050E075
:1043400009C02FEF3FEF4FEF5FE704C020E030E000
:1043500040E050E8B901CA012C96E2E00C94D12368
:10436000EF92FF920F931F937B018C0180E0E81680
:1043700080E0F80681E0080780E0180788F48FEFF6
:10438000E816F1040105110531F028F088E090E00D
:10439000A0E0B0E017C080E090E0A0E0B0E012C084
:1043A00080E0E81680E0F80680E0080781E0180762
:1043B00028F088E190E0A0E0B0E004C080E190E067
:1043C000A0E0B0E020E230E040E050E0281B390BF4
:1043D0004A0B5B0B04C016950795F794E7948A95F2
:1043E000D2F7F701E55FFD4F8081281B31094109B4
:1043F0005109C9011F910F91FF90EF900895DF922D
:10440000EF92FF920F931F93FC01E480F5800681E9
:104410001781D1808081823048F480E090E0A0E173
:10442000B0E0E82AF92A0A2B1B2BA5C0843009F436
:104430009FC0823021F4EE24FF24870105C0E114DF
:10444000F1040105110519F4E0E0F0E096C0628185
:1044500073819FEF623879070CF05BC022E83FEF71
:10446000261B370B2A3131052CF020E030E040E0EC
:1044700050E02AC0B801A701022E04C076956795C6
:10448000579547950A94D2F781E090E0A0E0B0E01C
:1044900004C0880F991FAA1FBB1F2A95D2F7019746
:1044A000A109B1098E219F21A023B1230097A10565
:1044B000B10521F081E090E0A0E0B0E09A01AB010D
:1044C000282B392B4A2B5B2BDA01C9018F7790708F
:1044D000A070B07080349105A105B10539F427FFB3
:1044E00009C0205C3F4F4F4F5F4F04C0215C3F4FDE
:1044F0004F4F5F4FE0E0F0E02030A0E03A07A0E04F
:104500004A07A0E45A0710F0E1E0F0E079018A01DF
:1045100027C06038710564F5FB01E158FF4FD801F1
:10452000C7018F779070A070B07080349105A1059D
:10453000B10539F4E7FE0DC080E490E0A0E0B0E002
:1045400004C08FE390E0A0E0B0E0E80EF91E0A1F7F
:104550001B1F17FF05C016950795F794E794319632
:1045600087E016950795F794E7948A95D1F705C0EB
:10457000EE24FF248701EFEFF0E06E2F67956627AA
:104580006795902F9F77D794DD24D7948E2F8695AB
:10459000492F462B582F5D29B701CA011F910F9152
:1045A000FF90EF90DF900895FC01DB014081518185
:1045B0002281622F6F7770E0221F2227221F9381B2
:1045C000892F880F822B282F30E0991F9927991F58
:1045D00011969C93119721153105A9F541155105A7
:1045E0006105710511F482E037C082E89FEF1396F0
:1045F0009C938E9312979A01AB0167E0220F331FB1
:10460000441F551F6A95D1F783E08C930DC0220F8C
:10461000331F441F551F12968D919C91139701973C
:1046200013969C938E931297203080E0380780E099
:10463000480780E4580758F314962D933D934D9303
:104640005C93179708952F3F310579F44115510573
:104650006105710519F484E08C93089564FF03C02B
:1046600081E08C9312C01C9210C02F5730401396DB
:104670003C932E93129783E08C9387E0440F551F51
:10468000661F771F8A95D1F7706414964D935D93DA
:104690006D937C93179708951F93DC01FB019C9108
:1046A000923008F447C08081823008F443C09430CF
:1046B00051F411961C91843099F58181682F70E036
:1046C000611B71093FC0843021F0923031F4823097
:1046D000B9F18181882389F12DC011961C91119720
:1046E0008230F1F081811817D9F412962D913C9106
:1046F0001397828193818217930794F028173907C3
:10470000BCF014968D919D910D90BC91A02D2481AB
:10471000358146815781281739074A075B0718F406
:10472000112341F00AC082179307A407B50740F48C
:10473000112319F061E070E005C06FEF7FEF02C058
:1047400060E070E0CB011F9108952F923F924F924D
:104750005F926F927F928F929F92AF92BF92CF9211
:10476000DF92EF92FF920F931F93CF93DF93CDB71A
:10477000DEB7CA1BDB0B0FB6F894DEBF0FBECDBF92
:1047800019942A88398848885F846E847D848C8453
:104790009B84AA84B984C884DF80EE80FD800C816C
:1047A0001B81AA81B981CE0FD11D0FB6F894DEBF4F
:0C47B0000FBECDBFED010895F894FFCFBF
:1047BC0080800100000000000000000001020203E4
:1047CC00030303040404040404040405050505059B
:1047DC000505050505050505050505060606060678
:1047EC00060606060606060606060606060606065D
:1047FC000606060606060606060606070707070748
:10480C00070707070707070707070707070707072C
:10481C00070707070707070707070707070707071C
:10482C00070707070707070707070707070707070C
:10483C0007070707070707070707070808080808F7
:10484C0008080808080808080808080808080808DC
:10485C0008080808080808080808080808080808CC
:10486C0008080808080808080808080808080808BC
:10487C0008080808080808080808080808080808AC
:10488C00080808080808080808080808080808089C
:10489C00080808080808080808080808080808088C
:1048AC00080808080808080808080808080808087C
:0C48BC0008080808080808080808080098
:00000001FF
