:100BBC0001130001160001150001120001140001BF
:050BCC0008000111000A
:100B6D00E4FDFCC3ED9FEC9E5015E4FBFA0BBB00BE
:0F0B7D00010AEB64354A70F50DBD00010C80E4F0
:010B8C002246
:0D0B1100D2A4C2A4E94408F5A0D2A4C2A455
:100B1E00E5A05480FFC2A4C2A6D2A5300013D2A471
:100B2E00EF447FF5A0E5A0640324FF9200C2A480E9
:010B3E00EACC
:010B3F002293
:100BD2008F137804EF08800103D8FDF513540FFF3B
:010BE20022F0
:020AB100AE078E
:100AB300E5A05480FD120B1EAF06120BD2EF4DF5CD
:100AC300A0C2A5C2A6D2A4C2A4EE540F4DF5A0C2E3
:0E0AD300A5C2A6D2A4C2A47F027E00020B6DB3
:020AE100AE075E
:100AE300E5A05480FD120BD2AC07120B1EEC4DF5A2
:100AF300A0C2A5D2A6D2A4C2A4EE540F4DF5A0C2A3
:0E0B0300A5D2A6D2A4C2A47F027E00020B6D72
:060800008B228A238924EB
:10080600E4F545F546F545AB22AA23A9248545829C
:10081600758300120B40FFE546D3940FEF75F06425
:10082600403C842430FE74252546F8A606EF75F074
:100836000A84FE74262546F8A60674262546F8E69A
:1008460075F00A84E5F02430F6EF75F00A84E5F0D9
:100856002430FE74272546F8A6067428803A842498
:1008660030FE74252546F8A606EF75F00A84FE7458
:10087600262546F8A60674262546F8E675F00A8467
:10088600E5F02430F6EF75F00A84E5F02430FE74C6
:10089600272546F8A60674282546F87620740425EA
:1008A60046F5460545E5456408600302080D7F8068
:1008B600120AB1E4F545E545C395465023E545B42E
:1008C60010057FC0120AB1E545D3940F4004742584
:1008D600800274252545F8E6FF120AE1054580D613
:0508E6007F80020AB151
:100A3800E5A05480F9C2A6C2A57F287E00120B6DDE
:100A4800C2A4E94403F5A0D2A4C2A47F04120B6D8A
:100A5800E94403F5A0D2A4C2A47F02120B6DE944B5
:100A680003F5A0D2A4C2A4120B6DE94402120B181C
:100A7800E94402F5A0120B1189A0120B1189A0D22A
:100A8800A4C2A4E94401120B1889A0D2A4C2A4E903
:100A98004406120B187F0F120AB17F01120AB17FA8
:090AA80006120AB17F80020AB1B6
:100BA5008F80D2B6C2B67F027E00120B6D7580FFB4
:060BB500D2B7AF80C2B709
:010BBB002217
:030BF5008FFA2252
:030BF8008FFB224E
:090BE300D292D291C2B4C2902258
:090BEC00C292C291C2B4C290226F
:100B8D0075D98075D840E4F5EA75FAFFF5EB75FB7C
:080B9D00FF75DA4275DB42220C
:1008EB00E4F521C2B7C2B6D2A7120A38120B8D1289
:1008FB000BE37F4F120BF5120BF8E4F521AF21122E
:10090B000BA574092521F8A6070521E521C3940839
:10091B0040EB850D15850E12850F14850B11E4F533
:10092B0008E512C39419500B7508017F4F120BF594
:10093B00120BF8E515D394194011E508700D7508E5
:10094B00017F3F120BF57F5F120BF8E514D394195F
:10095B004011E508700D7508017F5F120BF57F3FA5
:10096B00120BF8E511C3946E4007120BECC2A78073
:10097B0005120BE3D2A7E515D394194011E512D359
:10098B009419400AE514D394194003120BEC7B0025
:10099B007A0079091208007FFA7E00120B6D0209AA
:0109AB000546
:030000000209AC46
:0C09AC00787FE4F6D8FD7581460209F35F
:100B4000BB010CE58229F582E5833AF583E022506A
:100B500006E92582F8E622BBFE06E92582F8E222B4
:0D0B6000E58229F582E5833AF583E49322CE
:1009B8000208EBE493A3F8E493A34003F68001F262
:1009C80008DFF48029E493A3F85407240CC8C33340
:1009D800C4540F4420C8834004F456800146F6DF0F
:1009E800E4800B0102040810204080900BBCE47ED8
:1009F800019360BCA3FF543F30E509541FFEE49304
:100A0800A360010ECF54C025E060A840B8E493A3CA
:100A1800FAE493A3F8E493A3C8C582C8CAC583CAF5
:100A2800F0A3C8C582C8CAC583CADFE9DEE780BEAD
:010BD1000023
:00000001FF
