:100BAB0001120001150001140001110001130001D5
:020BBB00080030
:100B5C00E4FDFCC3ED9FEC9E5015E4FBFA0BBB00CF
:0F0B6C00010AEB64354A70F50DBD00010C80E401
:010B7B002257
:0D0B0000D2A4C2A4E94408F5A0D2A4C2A466
:100B0D00E5A05480FFC2A4C2A6D2A5300013D2A482
:100B1D00EF447FF5A0E5A0640324FF9200C2A480FA
:010B2D00EADD
:010B2E0022A4
:100BBE008F127804EF08800103D8FDF512540FFF51
:010BCE002204
:020AA000AE079F
:100AA200E5A05480FD120B0DAF06120BBEEF4DF503
:100AB200A0C2A5C2A6D2A4C2A4EE540F4DF5A0C2F4
:0E0AC200A5C2A6D2A4C2A47F027E00020B5CD5
:020AD000AE076F
:100AD200E5A05480FD120BBEAC07120B0DEC4DF5D8
:100AE200A0C2A5D2A6D2A4C2A4EE540F4DF5A0C2B4
:0E0AF200A5D2A6D2A4C2A47F027E00020B5C95
:060800008B228A238924EB
:10080600E4F545F546F545AB22AA23A9248545829C
:10081600758300120B2FFFE546D3940FEF75F06436
:10082600403C842430FE74252546F8A606EF75F074
:100836000A84FE74262546F8A60674262546F8E69A
:1008460075F00A84E5F02430F6EF75F00A84E5F0D9
:100856002430FE74272546F8A6067428803A842498
:1008660030FE74252546F8A606EF75F00A84FE7458
:10087600262546F8A60674262546F8E675F00A8467
:10088600E5F02430F6EF75F00A84E5F02430FE74C6
:10089600272546F8A60674282546F87620740425EA
:1008A60046F5460545E5456408600302080D7F8068
:1008B600120AA0E4F545E545C395465023E545B43F
:1008C60010057FC0120AA0E545D3940F4004742595
:1008D600800274252545F8E6FF120AD0054580D624
:0508E6007F80020AA062
:100A2700E5A05480F9C2A6C2A57F287E00120B5C00
:100A3700C2A4E94403F5A0D2A4C2A47F04120B5CAC
:100A4700E94403F5A0D2A4C2A47F02120B5CE944D7
:100A570003F5A0D2A4C2A4120B5CE94402120B074F
:100A6700E94402F5A0120B0089A0120B0089A0D25D
:100A7700A4C2A4E94401120B0789A0D2A4C2A4E925
:100A87004406120B077F0F120AA07F01120AA07FEC
:090A970006120AA07F80020AA0E9
:100B94008F80D2B6C2B67F027E00120B5C7580FFD6
:060BA400D2B7AF80C2B71A
:010BAA002228
:030BE1008FFA2266
:030BE4008FFB2262
:090BCF00D292D291C2B4C290226C
:090BD800C292C291C2B4C2902283
:100B7C0075D98075D840E4F5EA75FAFFF5EB75FB8D
:080B8C00FF75DA4275DB42221D
:1008EB00E4F521C2B7C2B6D2A7120A27120B7C12AB
:1008FB000BCF7F4F120BE1120BE4E4F521AF21126A
:10090B000B9474092521F8A6070521E521C394084A
:10091B0040EB850D14850E11850F13E4F508E511D9
:10092B00C39419500B7508017F4F120BE1120BE4A6
:10093B00E514D394194011E508700D7508017F3F3C
:10094B00120BE17F5F120BE4E513D394194011E511
:10095B0008700D7508017F5F120BE17F3F120BE4EE
:10096B00E514D394194013E511D39419400CE513F6
:10097B00D394194005120BD88003120BCF7B007A4E
:10098B000079091208007FFA7E00120B5C02090540
:0300000002099B57
:0C099B00787FE4F6D8FD7581460209E281
:100B2F00BB010CE58229F582E5833AF583E022507B
:100B3F0006E92582F8E622BBFE06E92582F8E222C5
:0D0B4F00E58229F582E5833AF583E49322DF
:1009A7000208EBE493A3F8E493A34003F68001F273
:1009B70008DFF48029E493A3F85407240CC8C33351
:1009C700C4540F4420C8834004F456800146F6DF20
:1009D700E4800B0102040810204080900BABE47EFA
:1009E700019360BCA3FF543F30E509541FFEE49315
:1009F700A360010ECF54C025E060A840B8E493A3DC
:100A0700FAE493A3F8E493A3C8C582C8CAC583CA06
:100A1700F0A3C8C582C8CAC583CADFE9DEE780BEBE
:010BBD000037
:00000001FF
