:1000000012C021C020C01FC01EC01DC01CC01BC00C
:100010001AC019C018C017C016C015C014C013C02C
:1000200012C011C010C011241FBECFE5D4E0DEBF46
:10003000CDBF10E0A0E6B0E001C01D92A236B1072E
:10004000E1F781D09FC0DCCFDF93CF93CDB7DEB790
:10005000E8E3F0E080E18083E7E3F0E080E18083A3
:10006000E5E3F0E08FE38083E4E3F0E01082E2E395
:10007000F0E01082E1E3F0E08FEF8083CF91DF9139
:100080000895DF93CF93CDB7DEB7EDE2F0E081E4E2
:100090008083EEE2F0E01082EFE2F0E01082CF9198
:1000A000DF910895DF93CF93CDB7DEB7E6E2F0E0BE
:1000B0001082E7E2F0E01082E8E2F0E080E880837E
:1000C000E6E2F0E085EC8083CF91DF910895DF9345
:1000D000CF9300D0CDB7DEB78A8319828A8187702B
:1000E0008A83E7E2F0E08A8180628083A6E2B0E062
:1000F000E6E2F0E0808180648C93E6E2F0E08081CB
:10010000882F90E0807190700097B9F3E5E2F0E0FD
:1001100080818983A6E2B0E0E6E2F0E08081806140
:100120008C9389810F900F90CF91DF910895DF9389
:10013000CF93CDB7DEB7F89487DFA3DFB3DF789432
:10014000CF91DF910895DF93CF93CDB7DEB7EFDF87
:10015000EEE2F0E080818823DCF7EFE2F0E08081DE
:100160008093610080916100B2DF80936000EFE2D4
:10017000F0E0809160008083EEE2F0E080818823EF
:08018000DCF7E6CFF894FFCF95
:00000001FF
