:100000000C942A000C943C000C943C000C943C0092
:100010000C943C000C943C000C943C000C943C0070
:100020000C94B7000C943C000C943C000C943C00E5
:100030000C943C000C943C000C943C000C943C0050
:100040000C943C000C943C000C943C000C943C0040
:100050000C943C0011241FBECFE5D4E0DEBFCDBF21
:1000600010E0A0E6B0E001C01D92A136B107E1F7B3
:100070000E9406010C940D010C940000DF93CF93B5
:10008000CDB7DEB7A4E3B0E0E4E3F0E080818860C0
:100090008C93A5E3B0E0E5E3F0E08081877F8C936B
:1000A000CF91DF910895DF93CF93CDB7DEB70E9454
:1000B0003E00CF91DF910895DF93CF930F92CDB79C
:1000C000DEB71982E3E3F0E080818983898188606B
:1000D0008983E5E3F0E0898180830F90CF91DF9100
:1000E0000895DF93CF930F92CDB7DEB71982E3E384
:1000F000F0E0808189838981877F8983E5E3F0E06F
:10010000898180830F90CF91DF910895DF93CF9302
:10011000CDB7DEB7EEE4F0E01082EDE4F0E083EE80
:100120008083ECE4F0E081EE8083EBE4F0E08CE1AE
:100130008083EAE4F0E08FE18083E9E4F0E08CE1A1
:100140008083E8E4F0E08FE18083E7E4F0E08CE195
:100150008083E6E4F0E08FE18083EFE4F0E010825A
:10016000EEE4F0E085E08083CF91DF9108951F9267
:100170000F920FB60F9211242F933F934F935F93DB
:100180006F937F938F939F93AF93BF93EF93FF935F
:10019000DF93CF93CDB7DEB7EDE4F0E083EE80835D
:1001A000ECE4F0E081EE80838091600080958093A4
:1001B000600080916000882319F40E945C0002C0F6
:1001C0000E947100CF91DF91FF91EF91BF91AF91AC
:1001D0009F918F917F916F915F914F913F912F915F
:1001E0000F900FBE0F901F901895DF93CF93CDB750
:1001F000DEB7F8940E9453000E948600E9E5F0E023
:1002000084E080837894CF91DF910895DF93CF933A
:0E021000CDB7DEB70E94F500FFCFF894FFCF08
:00000001FF
