:100000000C942A000C94D1000C94FC000C94470032
:100010000C9447000C9447000C9447000C94470044
:100020000C9447000C9447000C9447000C94470034
:100030000C9447000C9447000C9447000C94470024
:100040000C9447000C9447000C9447000C94470014
:100050000C94470011241FBECFE5D4E0DEBFCDBF16
:1000600011E0A8E6B1E001C01D92A237B107E1F7A7
:1000700011E0A0E6B0E0E8EDFDE102C005900D92D0
:10008000A836B107D9F70E943F030C94EA0E0C94EE
:100090000000DF93CF93CDB7DEB7A7E3B0E0E7E38F
:1000A000F0E080818F608C93A8E3B0E0E8E3F0E0BB
:1000B0008081807F8C93A1E3B0E0E1E3F0E0808178
:1000C00080638C93A2E3B0E0E2E3F0E080818063A0
:1000D0008C93CF91DF910895DF93CF93CDB7DEB7A7
:1000E000A1E3B0E0E1E3F0E08081877F8C93A2E3BD
:1000F000B0E0E2E3F0E0808188608C93CF91DF9103
:100100000895DF93CF93CDB7DEB7A1E3B0E0E1E38D
:10011000F0E080818B7F8C93A2E3B0E0E2E3F0E03B
:10012000808184608C93CF91DF910895DF93CF938A
:10013000CDB7DEB70E9449000E946C000E9481008A
:10014000CF91DF910895DF93CF93CDB7DEB7F894C9
:10015000A5E5B0E0E5E5F0E0808188608C93ABE553
:10016000B0E0EBE5F0E0808180688C937894CF91EB
:10017000DF910895DF93CF93CDB7DEB7F894A5E56F
:10018000B0E0E5E5F0E0808182608C93ABE5B0E023
:10019000EBE5F0E0808180648C937894CF91DF91DF
:1001A00008951F920F920FB60F9211248F939F9371
:1001B000AF93BF93DF93CF93CDB7DEB780916C0140
:1001C00090916D01A0916E01B0916F010196A11DFA
:1001D000B11D80936C0190936D01A0936E01B0935B
:1001E0006F01CF91DF91BF91AF919F918F910F9050
:1001F0000FBE0F901F9018951F920F920FB60F927F
:1002000011248F939F93AF93BF93DF93CF93CDB779
:10021000DEB78091680190916901A0916A01B09167
:100220006B010196A11DB11D809368019093690136
:10023000A0936A01B0936B01CF91DF91BF91AF9111
:100240009F918F910F900FBE0F901F901895DF9385
:10025000CF9300D0CDB7DEB78A8319828A818F70A1
:100260008A83E8E3F0E0808189838981807F8983C4
:1002700099818A81892B8983E8E3F0E089818083F1
:100280000F900F90CF91DF910895DF93CF93CDB76B
:10029000DEB786E00E942701CF91DF910895DF93BA
:1002A000CF93CDB7DEB789E00E942701CF91DF91D0
:1002B0000895DF93CF93CDB7DEB785E00E94270185
:1002C000CF91DF910895DF93CF93CDB7DEB78AE06A
:1002D0000E942701CF91DF910895DF93CF93CDB78F
:1002E000DEB784E00E942701CF91DF910895DF936C
:1002F000CF93CDB7DEB782E00E942701CF91DF9187
:100300000895DF93CF93CDB7DEB781E00E94270138
:10031000CF91DF910895DF93CF93CDB7DEB788E01B
:100320000E942701CF91DF910895DF93CF93CDB73E
:10033000DEB780E00E942701CF91DF910895DF931F
:10034000CF93CDB7DEB72C970FB6F894DEBF0FBEB4
:10035000CDBF9A87898780E090E0A0E0B0E08D83F0
:100360009E83AF83B88719821A821B821C8289857B
:100370009A85CC01A0E0B0E0BC01CD010E94450C03
:10038000DC01CB01BC01CD012AE939E94DE451E49E
:100390000E94B50ADC01CB018D839E83AF83B887B1
:1003A0006D817E818F8198850E94E507DC01CB01FC
:1003B000CC01A0E0B0E089839A83AB83BC83109228
:1003C0006C0110926D0110926E0110926F011092EB
:1003D00068011092690110926A0110926B012091DC
:1003E0006C0130916D0140916E0150916F011C863E
:1003F00089819A81AB81BC81281739074A075B073D
:1004000010F081E08C872091680130916901409162
:100410006A0150916B011B8689819A81AB81BC81F5
:10042000281739074A075B0710F091E09B878C85F6
:100430009B85892B882399F20E9495012C960FB6F3
:10044000F894DEBF0FBECDBFCF91DF910895DF934B
:10045000CF93CDB7DEB72A970FB6F894DEBF0FBEA5
:10046000CDBF9A87898780E090E0A0E0B0E08D83DF
:100470009E83AF83B88719821A821B821C8289856A
:100480009A85CC01A0E0B0E0BC01CD010E94450CF2
:10049000DC01CB01BC01CD0122E538EB4EE451E497
:1004A0000E94B50ADC01CB018D839E83AF83B887A0
:1004B0006D817E818F8198850E94E507DC01CB01EB
:1004C00089839A83AB83BC8310926C0110926D0177
:1004D00010926E0110926F0120916C0130916D01AC
:1004E00040916E0150916F0189819A81AB81BC81ED
:1004F00082179307A407B50778F70E9495012A96FB
:100500000FB6F894DEBF0FBECDBFCF91DF91089537
:10051000DF93CF9300D0CDB7DEB79A8389830E9453
:10052000450189819A810E9427020F900F90CF91F7
:10053000DF910895DF93CF9300D0CDB7DEB79A83D4
:1005400089830E944F0189819A810E9427020F901E
:100550000F90CF91DF910895DF93CF9300D0CDB767
:10056000DEB79A8389830E94590189819A810E940A
:100570009F010F900F90CF91DF910895DF93CF935C
:1005800000D0CDB7DEB79A8389830E946301898149
:100590009A810E949F010F900F90CF91DF91089553
:1005A000DF93CF9300D0CDB7DEB79A8389830E94C3
:1005B0006D0189819A81880F991F9A838983898126
:1005C0009A810E949F010F900F90CF91DF91089523
:1005D000DF93CF9300D0CDB7DEB79A8389830E9493
:1005E000770189819A81880F991F9A8389838981EC
:1005F0009A810E949F010F900F90CF91DF910895F3
:10060000DF93CF9300D0CDB7DEB79A8389830E9462
:10061000810189819A81880F991F9A8389838981B1
:100620009A810E949F010F900F90CF91DF910895C2
:10063000DF93CF9300D0CDB7DEB79A8389830E9432
:100640008B0189819A81880F991F9A838983898177
:100650009A810E949F010F900F90CF91DF91089592
:10066000DF93CF93CDB7DEB7F8940E9496000E9437
:10067000A3000E94BA007894CF91DF9108950F9360
:100680001F93DF93CF93CDB7DEB7C057D0400FB6DF
:10069000F894DEBF0FBECDBF0E94300384E690E029
:1006A0000E9488020E949501FE01E359FF4F80E0FD
:1006B00090E0AAEFB3E480839183A283B3838E0199
:1006C00007591F4FFE01E359FF4F608171818281FD
:1006D000938126E636E646EE54E40E94BB09DC012F
:1006E000CB01F80180839183A283B383FE01E75994
:1006F000FF4F608171818281938120E030E040E88A
:100700005FE30E94C10B882344F4FE01E959FF4FC7
:1007100081E090E09183808364C0FE01E759FF4F40
:10072000608171818281938120E03FEF4FE757E440
:100730000E94610B18160CF043C0FE01E359FF4FF5
:10074000608171818281938120E030E040E251E458
:100750000E94BB09DC01CB018E0109591F4FBC016E
:10076000CD010E94E507DC01CB01F8019183808374
:100770001FC0FE01EB59FF4F88EB90E0918380830F
:10078000FE01EB59FF4F808191810197F1F7FE0146
:10079000EB59FF4F91838083DE01A959BF4FFE01C2
:1007A000E959FF4F80819181019711969C938E9317
:1007B000FE01E959FF4F808191810097D1F627C052
:1007C0008E0109591F4FFE01E759FF4F608171816A
:1007D000828193810E94E507DC01CB01F8019183BE
:1007E0008083DE01AD59BF4FFE01E959FF4F808183
:1007F00091818D939C93FE01ED59FF4F80819181F2
:100800000197F1F7FE01ED59FF4F9183808384E654
:1008100090E00E949A020E949501FE01E15AFF4F6A
:1008200080E090E0AAEFB3E480839183A283B38356
:100830008E01055A1F4FFE01E15AFF4F6081718101
:100840008281938126E636E646EE54E40E94BB0997
:10085000DC01CB01F80180839183A283B383FE0185
:10086000E55AFF4F608171818281938120E030E001
:1008700040E85FE30E94C10B882344F4FE01E75A7D
:10088000FF4F81E090E09183808364C0FE01E55AD0
:10089000FF4F608171818281938120E03FEF4FE7BC
:1008A00057E40E94610B18160CF043C0FE01E15A98
:1008B000FF4F608171818281938120E030E040E2CE
:1008C00051E40E94BB09DC01CB018E01075A1F4F86
:1008D000BC01CD010E94E507DC01CB01F801918349
:1008E00080831FC0FE01E95AFF4F88EB90E091839F
:1008F0008083FE01E95AFF4F808191810197F1F7D2
:10090000FE01E95AFF4F91838083DE01A75ABF4F52
:10091000FE01E75AFF4F80819181019711969C93C8
:100920008E93FE01E75AFF4F808191810097D1F6A7
:1009300027C08E01075A1F4FFE01E55AFF4F608105
:100940007181828193810E94E507DC01CB01F8016E
:1009500091838083DE01AB5ABF4FFE01E75AFF4F00
:10096000808191818D939C93FE01EB5AFF4F808192
:1009700091810197F1F7FE01EB5AFF4F918380833C
:100980008AE590E00E94AC020E949501FE01EF5AB8
:10099000FF4F80E090E0AAEFB3E480839183A283CD
:1009A000B3838E01035B1F4FFE01EF5AFF4F60813F
:1009B00071818281938126E636E646EE54E40E94F8
:1009C000BB09DC01CB01F80180839183A283B3834F
:1009D000FE01E35BFF4F608171818281938120E0A2
:1009E00030E040E85FE30E94C10B882344F4FE013D
:1009F000E55BFF4F81E090E09183808364C0FE015E
:100A0000E35BFF4F608171818281938120E03FEF42
:100A10004FE757E40E94610B18160CF043C0FE012B
:100A2000EF5AFF4F608171818281938120E030E035
:100A300040E251E40E94BB09DC01CB018E01055B61
:100A40001F4FBC01CD010E94E507DC01CB01F8017D
:100A5000918380831FC0FE01E75BFF4F88EB90E02E
:100A600091838083FE01E75BFF4F80819181019735
:100A7000F1F7FE01E75BFF4F91838083DE01A55B09
:100A8000BF4FFE01E55BFF4F808191810197119679
:100A90009C938E93FE01E55BFF4F808191810097CF
:100AA000D1F627C08E01055B1F4FFE01E35BFF4FB0
:100AB00060817181828193810E94E507DC01CB0115
:100AC000F80191838083DE01A95BBF4FFE01E55BE6
:100AD000FF4F808191818D939C93FE01E95BFF4FD5
:100AE000808191810197F1F7FE01E95BFF4F9183CE
:100AF00080838AE590E00E94BE020E949501FE017B
:100B0000ED5BFF4F80E090E0AAEFB3E48083918338
:100B1000A283B3838E01015C1F4FFE01ED5BFF4F8B
:100B2000608171818281938126E636E646EE54E447
:100B30000E94BB09DC01CB01F80180839183A28371
:100B4000B383FE01FF96608171818281938120E0F1
:100B500030E040E85FE30E94C10B88232CF481E081
:100B600090E09EAF8DAF46C0FE01FF96608171811F
:100B70008281938120E03FEF4FE757E40E94610BB1
:100B8000181664F5FE01ED5BFF4F60817181828173
:100B9000938120E030E040E251E40E94BB09DC0197
:100BA000CB01BC01CD010E94E507DC01CB019EAF6A
:100BB0008DAF0FC088EB90E09CAF8BAF8BAD9CAD41
:100BC0000197F1F79CAF8BAF8DAD9EAD01979EAFB6
:100BD0008DAF8DAD9EAD009769F716C0FE01FF96F3
:100BE00060817181828193810E94E507DC01CB01E4
:100BF0009EAF8DAF8DAD9EAD9AAF89AF89AD9AADE9
:100C00000197F1F79AAF89AF8AE590E00E94D00290
:100C10000E94950180E090E0AAEFB3E48DAB9EAB1B
:100C2000AFABB8AF6DA97EA98FA998AD26E636E621
:100C300046EE54E40E94BB09DC01CB0189AB9AABC0
:100C4000ABABBCAB69A97AA98BA99CA920E030E029
:100C500040E85FE30E94C10B88232CF481E090E020
:100C600098AB8FA73FC069A97AA98BA99CA920E05E
:100C70003FEF4FE757E40E94610B18164CF56DA942
:100C80007EA98FA998AD20E030E040E251E40E94B7
:100C9000BB09DC01CB01BC01CD010E94E507DC01F1
:100CA000CB0198AB8FA70FC088EB90E09EA78DA7D4
:100CB0008DA59EA50197F1F79EA78DA78FA598A951
:100CC000019798AB8FA78FA598A9009769F714C0D3
:100CD00069A97AA98BA99CA90E94E507DC01CB012F
:100CE00098AB8FA78FA598A99CA78BA78BA59CA530
:100CF0000197F1F79CA78BA78AE590E00E94E80294
:100D00000E94950180E090E0AAEFB3E48FA398A73A
:100D1000A9A7BAA76FA178A589A59AA526E636E660
:100D200046EE54E40E94BB09DC01CB018BA39CA3DB
:100D3000ADA3BEA36BA17CA18DA19EA120E030E05C
:100D400040E85FE30E94C10B88232CF481E090E02F
:100D50009AA389A33FC06BA17CA18DA19EA120E095
:100D60003FEF4FE757E40E94610B18164CF56FA157
:100D700078A589A59AA520E030E040E251E40E94E0
:100D8000BB09DC01CB01BC01CD010E94E507DC0100
:100D9000CB019AA389A30FC088EB90E098A38F8F13
:100DA0008F8D98A10197F1F798A38F8F89A19AA1B0
:100DB00001979AA389A389A19AA1009769F714C002
:100DC0006BA17CA18DA19EA10E94E507DC01CB0156
:100DD0009AA389A389A19AA19E8F8D8F8D8D9E8DB7
:100DE0000197F1F79E8F8D8F8AE590E00E940003B6
:100DF0000E94950180E090E0AAEFB3E4898F9A8F7A
:100E0000AB8FBC8F698D7A8D8B8D9C8D26E636E6F7
:100E100046EE54E40E94BB09DC01CB018D8B9E8B16
:100E2000AF8BB88F6D897E898F89988D20E030E0F7
:100E300040E85FE30E94C10B88232CF481E090E03E
:100E40009C8B8B8B3FC06D897E898F89988D20E02C
:100E50003FEF4FE757E40E94610B18164CF5698D80
:100E60007A8D8B8D9C8D20E030E040E251E40E9431
:100E7000BB09DC01CB01BC01CD010E94E507DC010F
:100E8000CB019C8B8B8B0FC088EB90E09A8B898B6E
:100E900089899A890197F1F79A8B898B8B899C892B
:100EA00001979C8B8B8B8B899C89009769F714C069
:100EB0006D897E898F89988D0E94E507DC01CB01C1
:100EC0009C8B8B8B8B899C89988B8F878F8598893E
:100ED0000197F1F7988B8F878AE590E00E941803BD
:100EE0000E94950180E090E0AAEFB3E48B879C8795
:100EF000AD87BE876B857C858D859E8526E636E62B
:100F000046EE54E40E94BB09DC01CB018F83988735
:100F1000A987BA876F81788589859A8520E030E036
:100F200040E85FE30E94C10B88232CF481E090E04D
:100F30009E838D833FC06F81788589859A8520E067
:100F40003FEF4FE757E40E94610B18164CF56B8595
:100F50007C858D859E8520E030E040E251E40E9452
:100F6000BB09DC01CB01BC01CD010E94E507DC011E
:100F7000CB019E838D830FC088EB90E09C838B8395
:100F80008B819C810197F1F79C838B838D819E815E
:100F900001979E838D838D819E81009769F77ECB1B
:100FA0006F81788589859A850E94E507DC01CB01F0
:100FB0009E838D838D819E819A83898389819A8185
:100FC0000197F1F79A83898369CBEF92FF920F9390
:100FD0001F937B018C0120E030E040E05FE40E9441
:100FE000910B88238CF0C801B70120E030E040E08D
:100FF0005FE40E945D090E94F10B9B01AC0120504F
:1010000030404040504806C0C801B7010E94F10B73
:101010009B01AC01B901CA011F910F91FF90EF90A4
:101020000895A0E0B0E0E7E1F8E00C94B30EDC0135
:101030002B01FA019C91923008F439C1EB018881AF
:10104000823008F433C1943069F4843009F02FC140
:1010500011969C9111978981981709F428C1A0E6EF
:10106000B0E025C1843009F421C18230A9F4923066
:1010700009F01DC19A01AD0188E0EA010990AE01B5
:10108000E90109929E018150C1F7E201898111961F
:101090009C918923818308C1923009F407C112967B
:1010A0002D903C901397EB018A819B811496AD9013
:1010B000BD90CD90DC901797EC80FD800E811F8154
:1010C0009101281B390BB90137FF04C06627772728
:1010D000621B730B603271050CF061C012161306AF
:1010E0006CF537014801062E04C0969487947794D6
:1010F00067940A94D2F721E030E040E050E004C069
:10110000220F331F441F551F6A95D2F721503040DC
:10111000404050402E213F214023512321153105CD
:101120004105510521F021E030E040E050E0790137
:101130008A01E628F728082919293CC0232BD1F178
:10114000260E371E35014601062E04C0969487945C
:10115000779467940A94D2F721E030E040E050E0C1
:1011600004C0220F331F441F551F6A95D2F7215028
:101170003040404050402A213B214C215D21211527
:1011800031054105510521F021E030E040E050E01B
:1011900059016A01A628B728C828D9280BC082158A
:1011A00093052CF01C01AA24BB24650103C0EE2486
:1011B000FF24870111969C91D20111968C9198176A
:1011C00009F445C0992339F0A80197012A193B0970
:1011D0004C095D0906C0A60195012E193F09400B77
:1011E000510B57FD08C0118233822282248335833C
:1011F000468357831DC081E0818333822282882702
:101200009927DC01821B930BA40BB50B8483958378
:10121000A683B7830DC0220F331F441F551F24839D
:101220003583468357838281938101979383828399
:101230002481358146815781DA01C9010197A109CD
:10124000B1098F5F9F4FAF4FBF4328F30BC091830E
:1012500033822282EA0CFB1C0C1D1D1DE482F582E8
:101260000683178383E080832481358146815781FB
:1012700057FF1AC0C901AA2797FDA095BA2F817000
:101280009070A070B0705695479537952795822B32
:10129000932BA42BB52B84839583A683B78382815C
:1012A0009381019693838283DF0101C0D201CD0136
:1012B000CDB7DEB7E2E10C94CF0EA0E2B0E0E3E6FA
:1012C000F9E00C94BF0E69837A838B839C832D8312
:1012D0003E834F835887E9E0EE2EF12CEC0EFD1E85
:1012E000CE010196B7010E94E20D8E010F5E1F4FE5
:1012F000CE010596B8010E94E20D8A8991E0892706
:101300008A8BC701B801AE01475E5F4F0E9411088A
:101310000E940D0DA096E6E00C94DB0EA0E2B0E07A
:10132000E4E9F9E00C94BF0E69837A838B839C8394
:101330002D833E834F835887F9E0EF2EF12CEC0E7E
:10134000FD1ECE010196B7010E94E20D8E010F5ED7
:101350001F4FCE010596B8010E94E20DC701B801EA
:10136000AE01475E5F4F0E9411080E940D0DA096CE
:10137000E6E00C94DB0EA0E2B0E0E1ECF9E00C94C6
:10138000B30E69837A838B839C832D833E834F8343
:101390005887CE010196BE01675F7F4F0E94E20D24
:1013A000CE010596BE016F5E7F4F0E94E20D9985CA
:1013B000923088F089898230C8F0943019F48230F4
:1013C00051F404C0843029F4923081F480E690E036
:1013D000C6C0923049F420E09A858A89981321E0AA
:1013E0002A87CE010996BBC0823049F420E09A8555
:1013F0008A89981321E02A8BCE014196B0C02D84B2
:101400003E844F8458886D887E888F88988CEE241F
:10141000FF248701AA24BB24650140E050E060E07E
:1014200070E0E0E0F0E0C10181709070892BE9F09C
:10143000E60CF71C081D191D9A01AB012A0D3B1D76
:101440004C1D5D1D80E090E0A0E0B0E0E614F704E4
:101450000805190520F481E090E0A0E0B0E0BA01B1
:10146000A901480F591F6A1F7B1FAA0CBB1CCC1C6B
:10147000DD1C97FE08C081E090E0A0E0B0E0A82A63
:10148000B92ACA2ADB2A3196E032F10549F0660C06
:10149000771C881C991C5694479437942794C3CF83
:1014A000FA85EA892B893C898B859C85280F391F11
:1014B0002E5F3F4F17C0CA0181709070892B61F079
:1014C00016950795F794E79480E090E0A0E0B0E8E7
:1014D000E82AF92A0A2B1B2B76956795579547958D
:1014E0002F5F3F4F77FDE7CF0CC0440F551F661F9E
:1014F000771F17FD4160EE0CFF1C001F111F2150CC
:101500003040403090E0590790E0690790E4790757
:1015100060F32B8F3C8FDB01CA018F779070A07036
:10152000B07080349105A105B10561F447FD0AC092
:10153000E114F1040105110529F0405C5F4F6F4F84
:101540007F4F40781A8EFE1711F081E08A8F4D8F01
:101550005E8F6F8F78A383E0898FCE0149960E94BA
:101560000D0DA096E2E10C94CF0EA8E1B0E0EBEBFC
:10157000FAE00C94BB0E69837A838B839C832D8362
:101580003E834F835887B9E0EB2EF12CEC0EFD1E05
:10159000CE010196B7010E94E20D8E010F5E1F4F32
:1015A000CE010596B8010E94E20D2985223008F48B
:1015B0007EC03989323010F4B8017CC08A859A899E
:1015C00089278A87243011F0223031F4231709F05B
:1015D0006EC060E670E06EC0343039F41D861E8641
:1015E0001F86188A1C861B8604C0323021F484E0D2
:1015F0008987B7015FC02B853C858B899C89281B17
:10160000390B3C872B87ED84FE840F851889AD88C4
:10161000BE88CF88D88CEA14FB040C051D0540F465
:10162000EE0CFF1C001F111F215030403C872B8700
:1016300020E030E040E050E080E090E0A0E0B0E466
:1016400060E070E0EA14FB040C051D0540F0282B57
:10165000392B4A2B5B2BEA18FB080C091D09B695A0
:10166000A79597958795EE0CFF1C001F111F6F5FC4
:101670007F4F6F31710531F7DA01C9018F779070B3
:10168000A070B07080349105A105B10561F427FD0B
:101690000AC0E114F1040105110529F0205C3F4F57
:1016A0004F4F5F4F20782D873E874F87588BBE0165
:1016B000675F7F4FCB010E940D0D6896EAE00C94A6
:1016C000D70EA8E1B0E0E7E6FBE00C94BF0E69831B
:1016D0007A838B839C832D833E834F83588789E055
:1016E000E82EF12CEC0EFD1ECE010196B7010E94F2
:1016F000E20D8E010F5E1F4FCE010596B8010E94CC
:10170000E20D8985823040F08989823028F0C70156
:10171000B8010E945A0E01C08FEF6896E6E00C9463
:10172000DB0EA8E1B0E0E7E9FBE00C94BF0E6983B3
:101730007A838B839C832D833E834F83588789E0F4
:10174000E82EF12CEC0EFD1ECE010196B7010E9491
:10175000E20D8E010F5E1F4FCE010596B8010E946B
:10176000E20D8985823040F08989823028F0C701F6
:10177000B8010E945A0E01C08FEF6896E6E00C9403
:10178000DB0EA8E1B0E0E7ECFBE00C94BF0E698350
:101790007A838B839C832D833E834F83588789E094
:1017A000E82EF12CEC0EFD1ECE010196B7010E9431
:1017B000E20D8E010F5E1F4FCE010596B8010E940B
:1017C000E20D8985823040F08989823028F0C70196
:1017D000B8010E945A0E01C081E06896E6E00C94C0
:1017E000DB0EACE0B0E0E7EFFBE00C94C30E6983E6
:1017F0007A838B839C83CE010196BE016B5F7F4F02
:101800000E94E20D8D81823061F1823050F184308E
:1018100021F48E81882351F12EC02F81388537FD28
:1018200020C06E812F3131051CF06623F9F023C0F2
:101830008EE190E0821B930B29853A854B855C8570
:1018400004C056954795379527958A95D2F7662314
:10185000B1F050954095309521953F4F4F4F5F4FD8
:101860000EC020E030E040E050E009C02FEF3FEF35
:101870004FEF5FE704C020E030E040E050E8B901FE
:10188000CA012C96E2E00C94DF0EA8E0B0E0EBE495
:10189000FCE00C94BB0E7B018C0161157105810588
:1018A000910519F482E0898360C083E089838EE129
:1018B000C82ED12CDC82CB82ED82FE820F8318876A
:1018C000C801B7010E94BE0CFC013197F7FF3BC075
:1018D000222733272E1B3F0B57016801022E04C01D
:1018E000D694C794B794A7940A94D2F740E050E0F6
:1018F00060E070E081E090E0A0E0B0E004C0880F1C
:10190000991FAA1FBB1F2A95D2F70197A109B109F8
:101910008E219F21A023B1230097A105B10521F0BD
:1019200041E050E060E070E04A295B296C297D29A4
:101930004D835E836F8378878EE190E08E1B9F0BD3
:101940009C838B8312C0309781F00E2E04C0EE0C66
:10195000FF1C001F111F0A94D2F7ED82FE820F8335
:101960001887CE1ADF0ADC82CB821A82CE0101965A
:101970000E940D0D2896EAE00C94D70EEF92FF928C
:101980000F931F937B018C0180E0E81680E0F8063E
:1019900081E0080780E0180788F48FEFE816F1046B
:1019A0000105110531F028F088E090E0A0E0B0E0FA
:1019B00017C080E090E0A0E0B0E012C080E0E81640
:1019C00080E0F80680E0080781E0180728F088E149
:1019D00090E0A0E0B0E004C080E190E0A0E0B0E0E2
:1019E00020E230E040E050E0281B390B4A0B5B0B53
:1019F00004C016950795F794E7948A95D2F7F701F6
:101A0000E859FF4F8081281B310941095109C9015B
:101A10001F910F91FF90EF900895DF92EF92FF9248
:101A20000F931F93FC01E480F58006811781D1801C
:101A30008081823048F480E090E0A0E1B0E0E82AC4
:101A4000F92A0A2B1B2BA5C0843009F49FC08230D1
:101A500021F4EE24FF24870105C0E114F1040105FF
:101A6000110519F4E0E0F0E096C0628173819FEF08
:101A7000623879070CF05BC022E83FEF261B370B7A
:101A80002A3131052CF020E030E040E050E02AC05F
:101A9000B801A701022E04C0769567955795479522
:101AA0000A94D2F781E090E0A0E0B0E004C0880F93
:101AB000991FAA1FBB1F2A95D2F70197A109B10947
:101AC0008E219F21A023B1230097A105B10521F00C
:101AD00081E090E0A0E0B0E09A01AB01282B392B27
:101AE0004A2B5B2BDA01C9018F779070A070B07020
:101AF00080349105A105B10539F427FF09C0205CA8
:101B00003F4F4F4F5F4F04C0215C3F4F4F4F5F4FE0
:101B1000E0E0F0E02030A0E03A07A0E04A07A0E4CF
:101B20005A0710F0E1E0F0E079018A0127C060383F
:101B3000710564F5FB01E158FF4FD801C7018F77AC
:101B40009070A070B07080349105A105B10539F492
:101B5000E7FE0DC080E490E0A0E0B0E004C08FE3B9
:101B600090E0A0E0B0E0E80EF91E0A1F1B1F17FF6F
:101B700005C016950795F794E794319687E016957A
:101B80000795F794E7948A95D1F705C0EE24FF24D2
:101B90008701EFEFF0E06E2F679566276795902F2E
:101BA0009F77D794DD24D7948E2F8695492F462B87
:101BB000582F5D29B701CA011F910F91FF90EF9037
:101BC000DF900895FC01DB01408151812281622F69
:101BD0006F7770E0221F2227221F9381892F880FA1
:101BE000822B282F30E0991F9927991F11969C93DB
:101BF000119721153105A9F54115510561057105AB
:101C000011F482E037C082E89FEF13969C938E9385
:101C100012979A01AB0167E0220F331F441F551F33
:101C20006A95D1F783E08C930DC0220F331F441FB8
:101C3000551F12968D919C911397019713969C9323
:101C40008E931297203080E0380780E0480780E4C8
:101C5000580758F314962D933D934D935C93179723
:101C600008952F3F310579F441155105610571053E
:101C700019F484E08C93089564FF03C081E08C9391
:101C800012C01C9210C02F57304013963C932E93D5
:101C9000129783E08C9387E0440F551F661F771FD0
:101CA0008A95D1F7706414964D935D936D937C93F0
:101CB000179708951F93DC01FB019C91923008F463
:101CC00047C08081823008F443C0943051F41196AB
:101CD0001C91843099F58181682F70E0611B710936
:101CE0003FC0843021F0923031F48230B9F18181EB
:101CF000882389F12DC011961C9111978230F1F043
:101D000081811817D9F412962D913C9113978281F5
:101D100093818217930794F028173907BCF0149623
:101D20008D919D910D90BC91A02D2481358146818E
:101D30005781281739074A075B0718F4112341F028
:101D40000AC082179307A407B50740F4112319F0BE
:101D500061E070E005C06FEF7FEF02C060E070E00F
:101D6000CB011F9108952F923F924F925F926F92F5
:101D70007F928F929F92AF92BF92CF92DF92EF921B
:101D8000FF920F931F93CF93DF93CDB7DEB7CA1B9C
:101D9000DB0B0FB6F894DEBF0FBECDBF09942A88C7
:101DA000398848885F846E847D848C849B84AA846F
:101DB000B984C884DF80EE80FD800C811B81AA81FC
:101DC000B981CE0FD11D0FB6F894DEBF0FBECDBFC7
:081DD000ED010895F894FFCF26
:101DD80000000000000000000001020203030303EA
:101DE80004040404040404040505050505050505A3
:101DF8000505050505050505060606060606060683
:101E0800060606060606060606060606060606066A
:101E18000606060606060606070707070707070752
:101E2800070707070707070707070707070707073A
:101E3800070707070707070707070707070707072A
:101E4800070707070707070707070707070707071A
:101E58000707070707070707080808080808080802
:101E680008080808080808080808080808080808EA
:101E780008080808080808080808080808080808DA
:101E880008080808080808080808080808080808CA
:101E980008080808080808080808080808080808BA
:101EA80008080808080808080808080808080808AA
:101EB800080808080808080808080808080808089A
:101EC800080808080808080808080808080808088A
:081ED8000808080808080808C2
:00000001FF
