:060B0D00011000011100BF
:100ADC00E4FDFCC3ED9FEC9E5015E4FBFA0BBB0050
:0F0AEC00010AEB64354A70F50DBD00010C80E482
:010AFB0022D8
:0D0A8000D2A4C2A4E94408F5A0D2A4C2A4E7
:100A8D00E5A05480FFC2A4C2A6D2A5300013D2A403
:100A9D00EF447FF5A0E5A0640324FF9200C2A4807B
:010AAD00EA5E
:010AAE002225
:100AFC008F107804EF08800103D8FDF510540FFF18
:010B0C0022C6
:0209F000AE0750
:1009F200E5A05480FD120A8DAF06120AFCEF4DF5F8
:100A0200A0C2A5C2A6D2A4C2A4EE540F4DF5A0C2A4
:0E0A1200A5C2A6D2A4C2A47F027E00020ADC06
:020A2000AE071F
:100A2200E5A05480FD120AFCAC07120A8DEC4DF5CC
:100A3200A0C2A5D2A6D2A4C2A4EE540F4DF5A0C264
:0E0A4200A5D2A6D2A4C2A47F027E00020ADCC6
:060800008B218A228923EE
:10080600E4F544F545F544AB21AA22A923854482A3
:10081600758300120AAFFFE545D3940FEF75F064B8
:10082600403C842430FE74242545F8A606EF75F076
:100836000A84FE74252545F8A60674252545F8E69E
:1008460075F00A84E5F02430F6EF75F00A84E5F0D9
:100856002430FE74262545F8A6067427803A84249B
:1008660030FE74242545F8A606EF75F00A84FE745A
:10087600252545F8A60674252545F8E675F00A846B
:10088600E5F02430F6EF75F00A84E5F02430FE74C6
:10089600262545F8A60674272545F87620740425EE
:1008A60045F5450544E5446408600302080D7F806C
:1008B6001209F0E4F544E544C395455023E544B4F4
:1008C60010057FC01209F0E544D3940F4004742448
:1008D600800274242544F8E6FF120A20054480D6D7
:0508E6007F800209F013
:10097700E5A05480F9C2A6C2A57F287E00120ADC32
:10098700C2A4E94403F5A0D2A4C2A47F04120ADCDE
:10099700E94403F5A0D2A4C2A47F02120ADCE94409
:1009A70003F5A0D2A4C2A4120ADCE94402120A8702
:1009B700E94402F5A0120A8089A0120A8089A0D210
:1009C700A4C2A4E94401120A8789A0D2A4C2A4E957
:1009D7004406120A877F0F1209F07F011209F07F80
:0909E700061209F07F800209F0FC
:100A5000E4F51174082511F8A6110511E511B40883
:100A6000F2E4F511D2A71209777B007A0079081217
:100A700008007FE87E03120ADC051185110880E971
:030000000208EB08
:0C08EB00787FE4F6D8FD758145020932E3
:100AAF00BB010CE58229F582E5833AF583E02250FC
:100ABF0006E92582F8E622BBFE06E92582F8E22246
:0D0ACF00E58229F582E5833AF583E4932260
:1008F700020A50E493A3F8E493A34003F68001F2BD
:1009070008DFF48029E493A3F85407240CC8C33301
:10091700C4540F4420C8834004F456800146F6DFD0
:10092700E4800B0102040810204080900B0DE47E48
:10093700019360BCA3FF543F30E509541FFEE493C5
:10094700A360010ECF54C025E060A840B8E493A38C
:10095700FAE493A3F8E493A3C8C582C8CAC583CAB7
:10096700F0A3C8C582C8CAC583CADFE9DEE780BE6F
:010B130000E1
:00000001FF
