:0409470002080000A2
:0A092B0075880475A88475B00822D1
:0300130002091CC3
:0F091C00C0E00509E50970020508C28BD0E03282
:09093500D292D291C2B4C2902208
:09093E00C292C291C2B4C290221F
:1008F300E4FE7F64FC7D6412088C7C027D20120878
:100903009E12092BD293D294120935C3E5099FE5B0
:09091300089E40F712093E80FE27
:03000000020800F3
:0C080000787FE4F6D8FD758109020847F6
:10088C00EF8DF0A4A8F0CF8CF0A428CE8DF0A42E80
:02089C00FE223A
:10089E00BC000BBE0029EF8DF084FFADF022E4CC3E
:1008AE00F875F008EF2FFFEE33FEEC33FCEE9DEC07
:1008BE00984005FCEE9DFE0FD5F0E9E4CEFD22ED4D
:1008CE00F8F5F0EE8420D21CFEADF075F008EF2F97
:1008DE00FFED33FD4007985006D5F0F222C398FD88
:0508EE000FD5F0EA2225
:10080C000208F3E493A3F8E493A34003F68001F207
:10081C0008DFF48029E493A3F85407240CC8C333ED
:10082C00C4540F4420C8834004F456800146F6DFBC
:10083C00E4800B0102040810204080900947E47EFC
:10084C00019360BCA3FF543F30E509541FFEE493B1
:10085C00A360010ECF54C025E060A840B8E493A378
:10086C00FAE493A3F8E493A3C8C582C8CAC583CAA3
:10087C00F0A3C8C582C8CAC583CADFE9DEE780BE5B
:01094B0000AB
:00000001FF
