:100000000C9472000C9493000C9493000C94930045
:100010000C9493000C9493000C9493000C94930014
:100020000C9493000C9493000C9493000C94930004
:100030000C9493000C9493000C9493000C949300F4
:100040000C9493000C9493000C9493000C949300E4
:100050000C9493000C9493000C9493000C949300D4
:100060000C9493000C941E010C9493000C94930038
:100070000C9493000C9493000C9493000C949300B4
:100080000C9493000C9493000C9493000C949300A4
:100090000C9493000C9493000C9493000C94930094
:1000A0000C9493000C9493000C9493000C94930084
:1000B0000C9493000C9493000C9493000C94930074
:1000C0000C9493000C9493000C9493000C94930064
:1000D0000C9493000C9493000C9493000C94930054
:1000E0000C94930011241FBECFEFD1E2DEBFCDBF31
:1000F00000E00CBF12E0A0E0B2E0EEE3F3E000E0CD
:100100000BBF02C007900D92A030B107D9F712E0E3
:10011000A0E0B2E001C01D92A130B107E1F70E945A
:1001200096010C949D010C940000DF93CF93CDB702
:10013000DEB7A7E2B0E0E7E2F0E0808188608C9370
:10014000A8E2B0E0E8E2F0E08081877F8C93CF9175
:10015000DF910895DF93CF93CDB7DEB7A1E2B0E092
:10016000E1E2F0E080818F608C93A2E2B0E0E2E215
:10017000F0E08081807F8C93AAE0B1E0EAE0F1E0DA
:10018000808188618C93ABE0B1E0EBE0F1E08081AD
:1001900088618C93CF91DF910895DF93CF93CDB792
:1001A000DEB70E94AA000E949500CF91DF910895CA
:1001B000DF93CF930F92CDB7DEB71982E6E2F0E07E
:1001C00080818983898188608983E8E2F0E0898180
:1001D00080830F90CF91DF910895DF93CF930F929B
:1001E000CDB7DEB71982E6E2F0E0808189838981AC
:1001F000877F8983E8E2F0E0898180830F90CF9147
:10020000DF910895DF93CF93CDB7DEB7E1ECF0E057
:100210001082E0ECF0E01082E2ECF0E086E0808317
:10022000E4ECF0E08FE58083E5ECF0E01082E1ECB7
:10023000F0E088E98083CF91DF9108951F920F92BB
:100240000FB60F9200905B000F9211242F933F93F3
:100250004F935F936F937F938F939F93AF93BF93CE
:10026000EF93FF93DF93CF93CDB7DEB7E6ECF0E0EB
:10027000808180930002E6ECF0E0809100028083B0
:1002800080910002883321F4E2E2F0E086E080838E
:1002900080910002823321F4E2E2F0E089E0808381
:1002A00080910002843321F4E2E2F0E085E0808373
:1002B00080910002863321F4E2E2F0E08AE080835C
:1002C00080910002853319F4E2E2F0E0108280911F
:1002D0000002873311F40E94D80080910002893314
:1002E00011F40E94ED00CF91DF91FF91EF91BF914A
:1002F000AF919F918F917F916F915F914F913F91BE
:100300002F910F9000925B000F900FBE0F901F90E7
:100310001895DF93CF93CDB7DEB7F8940E94CD0048
:100320000E9402017894CF91DF910895DF93CF93DB
:0E033000CDB7DEB70E948901FFCFF894FFCF52
:00000001FF
