:100000000C9472000C9493000C9493000C94930045
:100010000C9493000C9493000C9493000C94930014
:100020000C9493000C9493000C9493000C94930004
:100030000C9493000C9493000C9493000C949300F4
:100040000C9493000C9493000C9493000C949300E4
:100050000C9493000C9493000C9493000C949300D4
:100060000C9493000C9493000C9493000C949300C4
:100070000C9493000C9493000C9493000C949300B4
:100080000C9493000C9493000C9493000C949300A4
:100090000C9493000C9493000C9493000C94930094
:1000A0000C9493000C9493000C9493000C94930084
:1000B0000C9493000C9411010C9493000C949300F5
:1000C0000C9493000C9493000C9493000C94930064
:1000D0000C9493000C9493000C9493000C94930054
:1000E0000C94930011241FBECFEFD1E2DEBFCDBF31
:1000F00000E00CBF12E0A0E0B2E0EEEDF2E000E0C4
:100100000BBF02C007900D92A030B107D9F712E0E3
:10011000A0E0B2E001C01D92A130B107E1F70E945A
:1001200066010C946D010C940000DF93CF93CDB762
:10013000DEB7A7E2B0E0E7E2F0E0808188608C9370
:10014000A8E2B0E0E8E2F0E08081877F8C93CF9175
:10015000DF910895DF93CF93CDB7DEB70E9495006E
:10016000CF91DF910895DF93CF930F92CDB7DEB794
:100170001982E6E2F0E08081898389818860898341
:10018000E8E2F0E0898180830F90CF91DF910895BC
:10019000DF93CF930F92CDB7DEB71982E6E2F0E09E
:1001A000808189838981877F8983E8E2F0E0898182
:1001B00080830F90CF91DF910895DF93CF93CDB7D8
:1001C000DEB7E1EAF0E01082E5EAF0E08FE180835B
:1001D000E4EAF0E081E08083E9EAF0E01082E8EA16
:1001E000F0E01082EBEAF0E01082EAEAF0E0108240
:1001F000EDEAF0E01082ECEAF0E01082E7EAF0E0ED
:100200001082E6EAF0E01082E0EAF0E01082E2EA32
:10021000F0E01082E1EAF0E084E08083CF91DF91AA
:1002200008951F920F920FB60F9200905B000F92ED
:1002300011242F933F934F935F936F937F938F93EB
:100240009F93AF93BF93EF93FF93DF93CF93CDB77C
:10025000DEB7E5EAF0E08FE18083E4EAF0E081E0F8
:10026000808380910002809580930002809100023B
:10027000882319F40E94B30002C00E94C800CF91E5
:10028000DF91FF91EF91BF91AF919F918F917F91FE
:100290006F915F914F913F912F910F9000925B0072
:1002A0000F900FBE0F901F901895DF93CF93CDB78F
:1002B000DEB7F8940E94AA000E94DD00E2E7F0E0B9
:1002C00081E080837894CF91DF910895DF93CF937D
:0E02D000CDB7DEB70E945501FFCFF894FFCFE7
:00000001FF
